{
  "_format": "hh-sol-artifact-1",
  "contractName": "HpbNodes",
  "sourceName": "contracts/nodes.sol",
  "abi": [
    {
      "constant": false,
      "inputs": [
        {
          "name": "boeaddr",
          "type": "address"
        }
      ],
      "name": "setHolderBoeAddr",
      "outputs": [],
      "payable": false,
      "stateMutability": "nonpayable",
      "type": "function"
    },
    {
      "constant": true,
      "inputs": [],
      "name": "name",
      "outputs": [
        {
          "name": "",
          "type": "string"
        }
      ],
      "payable": false,
      "stateMutability": "view",
      "type": "function"
    },
    {
      "constant": false,
      "inputs": [
        {
          "name": "holderAddr",
          "type": "address"
        }
      ],
      "name": "setHolderAddr",
      "outputs": [],
      "payable": false,
      "stateMutability": "nonpayable",
      "type": "function"
    },
    {
      "constant": true,
      "inputs": [
        {
          "name": "addr",
          "type": "address"
        }
      ],
      "name": "isLockNode",
      "outputs": [
        {
          "name": "",
          "type": "bool"
        }
      ],
      "payable": false,
      "stateMutability": "view",
      "type": "function"
    },
    {
      "constant": false,
      "inputs": [
        {
          "name": "nodeAddr",
          "type": "address"
        }
      ],
      "name": "stake",
      "outputs": [],
      "payable": false,
      "stateMutability": "nonpayable",
      "type": "function"
    },
    {
      "constant": false,
      "inputs": [
        {
          "name": "addr",
          "type": "address"
        }
      ],
      "name": "deleteAdmin",
      "outputs": [
        {
          "name": "",
          "type": "bool"
        }
      ],
      "payable": false,
      "stateMutability": "nonpayable",
      "type": "function"
    },
    {
      "constant": true,
      "inputs": [],
      "name": "getAdmins",
      "outputs": [
        {
          "name": "",
          "type": "address[]"
        }
      ],
      "payable": false,
      "stateMutability": "view",
      "type": "function"
    },
    {
      "constant": false,
      "inputs": [],
      "name": "kill",
      "outputs": [
        {
          "name": "",
          "type": "bool"
        }
      ],
      "payable": true,
      "stateMutability": "payable",
      "type": "function"
    },
    {
      "constant": true,
      "inputs": [],
      "name": "getAllBoesAddrs",
      "outputs": [
        {
          "name": "",
          "type": "address[]"
        }
      ],
      "payable": false,
      "stateMutability": "view",
      "type": "function"
    },
    {
      "constant": false,
      "inputs": [
        {
          "name": "nodeAddr",
          "type": "address"
        }
      ],
      "name": "withdraw",
      "outputs": [],
      "payable": false,
      "stateMutability": "nonpayable",
      "type": "function"
    },
    {
      "constant": false,
      "inputs": [
        {
          "name": "coinbase",
          "type": "address"
        }
      ],
      "name": "deleteBoeNode",
      "outputs": [
        {
          "name": "",
          "type": "bool"
        }
      ],
      "payable": false,
      "stateMutability": "nonpayable",
      "type": "function"
    },
    {
      "constant": false,
      "inputs": [
        {
          "name": "addr",
          "type": "address"
        }
      ],
      "name": "addAdmin",
      "outputs": [
        {
          "name": "",
          "type": "bool"
        }
      ],
      "payable": false,
      "stateMutability": "nonpayable",
      "type": "function"
    },
    {
      "constant": true,
      "inputs": [],
      "name": "getAlllockNode",
      "outputs": [
        {
          "name": "",
          "type": "address[]"
        }
      ],
      "payable": false,
      "stateMutability": "view",
      "type": "function"
    },
    {
      "constant": true,
      "inputs": [
        {
          "name": "addr",
          "type": "address"
        }
      ],
      "name": "isBoeNode",
      "outputs": [
        {
          "name": "",
          "type": "bool"
        }
      ],
      "payable": false,
      "stateMutability": "view",
      "type": "function"
    },
    {
      "constant": false,
      "inputs": [
        {
          "name": "coinbase",
          "type": "address"
        },
        {
          "name": "cid1",
          "type": "bytes32"
        },
        {
          "name": "cid2",
          "type": "bytes32"
        },
        {
          "name": "hid",
          "type": "bytes32"
        }
      ],
      "name": "addBoeNode",
      "outputs": [
        {
          "name": "",
          "type": "bool"
        }
      ],
      "payable": false,
      "stateMutability": "nonpayable",
      "type": "function"
    },
    {
      "constant": true,
      "inputs": [],
      "name": "getOwner",
      "outputs": [
        {
          "name": "",
          "type": "address"
        }
      ],
      "payable": false,
      "stateMutability": "view",
      "type": "function"
    },
    {
      "constant": true,
      "inputs": [],
      "name": "owner",
      "outputs": [
        {
          "name": "",
          "type": "address"
        }
      ],
      "payable": false,
      "stateMutability": "view",
      "type": "function"
    },
    {
      "constant": false,
      "inputs": [
        {
          "name": "coinbases",
          "type": "address[]"
        },
        {
          "name": "cid1s",
          "type": "bytes32[]"
        },
        {
          "name": "cid2s",
          "type": "bytes32[]"
        },
        {
          "name": "hids",
          "type": "bytes32[]"
        }
      ],
      "name": "updateBoeNodeBatch",
      "outputs": [
        {
          "name": "",
          "type": "bool"
        }
      ],
      "payable": false,
      "stateMutability": "nonpayable",
      "type": "function"
    },
    {
      "constant": true,
      "inputs": [],
      "name": "fetchAllHolderAddrs",
      "outputs": [
        {
          "name": "",
          "type": "address[]"
        },
        {
          "name": "",
          "type": "address[]"
        }
      ],
      "payable": false,
      "stateMutability": "view",
      "type": "function"
    },
    {
      "constant": false,
      "inputs": [
        {
          "name": "addr",
          "type": "address"
        }
      ],
      "name": "setLockContract",
      "outputs": [
        {
          "name": "",
          "type": "bool"
        }
      ],
      "payable": false,
      "stateMutability": "nonpayable",
      "type": "function"
    },
    {
      "constant": false,
      "inputs": [
        {
          "name": "coinbases",
          "type": "address[]"
        }
      ],
      "name": "deleteBoeNodeBatch",
      "outputs": [
        {
          "name": "",
          "type": "bool"
        }
      ],
      "payable": false,
      "stateMutability": "nonpayable",
      "type": "function"
    },
    {
      "constant": true,
      "inputs": [],
      "name": "getLockContract",
      "outputs": [
        {
          "name": "",
          "type": "address"
        }
      ],
      "payable": false,
      "stateMutability": "view",
      "type": "function"
    },
    {
      "constant": true,
      "inputs": [
        {
          "name": "boeaddr",
          "type": "address"
        }
      ],
      "name": "getHolderAddr",
      "outputs": [
        {
          "name": "",
          "type": "address"
        }
      ],
      "payable": false,
      "stateMutability": "view",
      "type": "function"
    },
    {
      "constant": true,
      "inputs": [],
      "name": "getAllBoes",
      "outputs": [
        {
          "name": "",
          "type": "address[]"
        },
        {
          "name": "",
          "type": "bytes32[]"
        },
        {
          "name": "",
          "type": "bytes32[]"
        },
        {
          "name": "",
          "type": "bytes32[]"
        }
      ],
      "payable": false,
      "stateMutability": "view",
      "type": "function"
    },
    {
      "constant": true,
      "inputs": [
        {
          "name": "",
          "type": "address"
        }
      ],
      "name": "adminMap",
      "outputs": [
        {
          "name": "",
          "type": "address"
        }
      ],
      "payable": false,
      "stateMutability": "view",
      "type": "function"
    },
    {
      "constant": true,
      "inputs": [],
      "name": "getAllHpbNodes",
      "outputs": [
        {
          "name": "",
          "type": "address[]"
        },
        {
          "name": "",
          "type": "bytes32[]"
        },
        {
          "name": "",
          "type": "bytes32[]"
        },
        {
          "name": "",
          "type": "bytes32[]"
        }
      ],
      "payable": false,
      "stateMutability": "view",
      "type": "function"
    },
    {
      "constant": false,
      "inputs": [
        {
          "name": "coinbase",
          "type": "address"
        },
        {
          "name": "cid1",
          "type": "bytes32"
        },
        {
          "name": "cid2",
          "type": "bytes32"
        },
        {
          "name": "hid",
          "type": "bytes32"
        }
      ],
      "name": "updateBoeNode",
      "outputs": [
        {
          "name": "",
          "type": "bool"
        }
      ],
      "payable": false,
      "stateMutability": "nonpayable",
      "type": "function"
    },
    {
      "constant": false,
      "inputs": [
        {
          "name": "newOwner",
          "type": "address"
        }
      ],
      "name": "transferOwnership",
      "outputs": [
        {
          "name": "",
          "type": "bool"
        }
      ],
      "payable": false,
      "stateMutability": "nonpayable",
      "type": "function"
    },
    {
      "constant": false,
      "inputs": [
        {
          "name": "coinbases",
          "type": "address[]"
        },
        {
          "name": "cid1s",
          "type": "bytes32[]"
        },
        {
          "name": "cid2s",
          "type": "bytes32[]"
        },
        {
          "name": "hids",
          "type": "bytes32[]"
        }
      ],
      "name": "addBoeNodeBatch",
      "outputs": [
        {
          "name": "",
          "type": "bool"
        }
      ],
      "payable": false,
      "stateMutability": "nonpayable",
      "type": "function"
    },
    {
      "inputs": [],
      "payable": true,
      "stateMutability": "payable",
      "type": "constructor"
    },
    {
      "payable": true,
      "stateMutability": "payable",
      "type": "fallback"
    },
    {
      "anonymous": false,
      "inputs": [
        {
          "indexed": true,
          "name": "sender",
          "type": "address"
        },
        {
          "indexed": false,
          "name": "amount",
          "type": "uint256"
        }
      ],
      "name": "ReceivedHpb",
      "type": "event"
    },
    {
      "anonymous": false,
      "inputs": [
        {
          "indexed": true,
          "name": "coinbase",
          "type": "address"
        },
        {
          "indexed": false,
          "name": "cid1",
          "type": "bytes32"
        },
        {
          "indexed": false,
          "name": "cid2",
          "type": "bytes32"
        },
        {
          "indexed": true,
          "name": "hid",
          "type": "bytes32"
        }
      ],
      "name": "AddBoeNode",
      "type": "event"
    },
    {
      "anonymous": false,
      "inputs": [
        {
          "indexed": true,
          "name": "coinbase",
          "type": "address"
        },
        {
          "indexed": false,
          "name": "cid1",
          "type": "bytes32"
        },
        {
          "indexed": false,
          "name": "cid2",
          "type": "bytes32"
        },
        {
          "indexed": true,
          "name": "hid",
          "type": "bytes32"
        }
      ],
      "name": "UpdateBoeNode",
      "type": "event"
    },
    {
      "anonymous": false,
      "inputs": [
        {
          "indexed": true,
          "name": "coinbase",
          "type": "address"
        }
      ],
      "name": "DeleteBoeNode",
      "type": "event"
    },
    {
      "anonymous": false,
      "inputs": [
        {
          "indexed": true,
          "name": "coinBase",
          "type": "address"
        },
        {
          "indexed": true,
          "name": "holderAddr",
          "type": "address"
        }
      ],
      "name": "SetHolderAddr",
      "type": "event"
    }
  ],
  "bytecode": "0x60806040526040805190810160405280601181526020017f485042204e6f64657320536572766963650000000000000000000000000000008152506003908051906020019062000051929190620002ba565b50336000806101000a81548173ffffffffffffffffffffffffffffffffffffffff021916908373ffffffffffffffffffffffffffffffffffffffff160217905550620000cd6000809054906101000a900473ffffffffffffffffffffffffffffffffffffffff16620000d4640100000000026401000000009004565b5062000369565b60008060009054906101000a900473ffffffffffffffffffffffffffffffffffffffff1673ffffffffffffffffffffffffffffffffffffffff163373ffffffffffffffffffffffffffffffffffffffff161415156200013257600080fd5b600073ffffffffffffffffffffffffffffffffffffffff16600260008473ffffffffffffffffffffffffffffffffffffffff1673ffffffffffffffffffffffffffffffffffffffff16815260200190815260200160002060009054906101000a900473ffffffffffffffffffffffffffffffffffffffff1673ffffffffffffffffffffffffffffffffffffffff16141515620001cd57600080fd5b81600260008473ffffffffffffffffffffffffffffffffffffffff1673ffffffffffffffffffffffffffffffffffffffff16815260200190815260200160002060006101000a81548173ffffffffffffffffffffffffffffffffffffffff021916908373ffffffffffffffffffffffffffffffffffffffff16021790555060018290806001815401808255809150509060018203906000526020600020016000909192909190916101000a81548173ffffffffffffffffffffffffffffffffffffffff021916908373ffffffffffffffffffffffffffffffffffffffff1602179055505060019050919050565b828054600181600116156101000203166002900490600052602060002090601f016020900481019282601f10620002fd57805160ff19168380011785556200032e565b828001600101855582156200032e579182015b828111156200032d57825182559160200191906001019062000310565b5b5090506200033d919062000341565b5090565b6200036691905b808211156200036257600081600090555060010162000348565b5090565b90565b61423c80620003796000396000f3fe60806040526004361061016f576000357c01000000000000000000000000000000000000000000000000000000009004806305230630146101bf57806306fdde031461021057806320ad7c7e146102a0578063228101b6146102f1578063264762041461035a57806327e1f7df146103ab57806331ae450b1461041457806341c0e1b5146104805780634d92591b146104a257806351cff8d91461050e578063595e2d901461055f57806370480275146105c8578063794cef01146106315780637e5337511461069d5780638454787514610706578063893d20e81461078d5780638da5cb5b146107e45780638fc532ce1461083b578063ab2d2c0b14610ad4578063acd487c214610b88578063ced9993114610bf1578063d0c05a9214610cce578063d3c932c214610d25578063d68e9cf414610db6578063dbbc830b14610efa578063dbe0179014610f8b578063f16f531c146110cf578063f2fde38b14611156578063f65b5378146111bf575b3373ffffffffffffffffffffffffffffffffffffffff167f7129701436f0cdc265d1e2cda298e8a1ccd6ed5fce7f69343e16530b07a2e06e346040518082815260200191505060405180910390a2005b3480156101cb57600080fd5b5061020e600480360360208110156101e257600080fd5b81019080803573ffffffffffffffffffffffffffffffffffffffff169060200190929190505050611458565b005b34801561021c57600080fd5b50610225611586565b6040518080602001828103825283818151815260200191508051906020019080838360005b8381101561026557808201518184015260208101905061024a565b50505050905090810190601f1680156102925780820380516001836020036101000a031916815260200191505b509250505060405180910390f35b3480156102ac57600080fd5b506102ef600480360360208110156102c357600080fd5b81019080803573ffffffffffffffffffffffffffffffffffffffff169060200190929190505050611624565b005b3480156102fd57600080fd5b506103406004803603602081101561031457600080fd5b81019080803573ffffffffffffffffffffffffffffffffffffffff1690602001909291905050506118f2565b604051808215151515815260200191505060405180910390f35b34801561036657600080fd5b506103a96004803603602081101561037d57600080fd5b81019080803573ffffffffffffffffffffffffffffffffffffffff16906020019092919050505061198d565b005b3480156103b757600080fd5b506103fa600480360360208110156103ce57600080fd5b81019080803573ffffffffffffffffffffffffffffffffffffffff169060200190929190505050611c5d565b604051808215151515815260200191505060405180910390f35b34801561042057600080fd5b50610429611fbd565b6040518080602001828103825283818151815260200191508051906020019060200280838360005b8381101561046c578082015181840152602081019050610451565b505050509050019250505060405180910390f35b61048861204b565b604051808215151515815260200191505060405180910390f35b3480156104ae57600080fd5b506104b76120e2565b6040518080602001828103825283818151815260200191508051906020019060200280838360005b838110156104fa5780820151818401526020810190506104df565b505050509050019250505060405180910390f35b34801561051a57600080fd5b5061055d6004803603602081101561053157600080fd5b81019080803573ffffffffffffffffffffffffffffffffffffffff1690602001909291905050506121d1565b005b34801561056b57600080fd5b506105ae6004803603602081101561058257600080fd5b81019080803573ffffffffffffffffffffffffffffffffffffffff1690602001909291905050506124fa565b604051808215151515815260200191505060405180910390f35b3480156105d457600080fd5b50610617600480360360208110156105eb57600080fd5b81019080803573ffffffffffffffffffffffffffffffffffffffff1690602001909291905050506129e8565b604051808215151515815260200191505060405180910390f35b34801561063d57600080fd5b50610646612bcc565b6040518080602001828103825283818151815260200191508051906020019060200280838360005b8381101561068957808201518184015260208101905061066e565b505050509050019250505060405180910390f35b3480156106a957600080fd5b506106ec600480360360208110156106c057600080fd5b81019080803573ffffffffffffffffffffffffffffffffffffffff169060200190929190505050612d3c565b604051808215151515815260200191505060405180910390f35b34801561071257600080fd5b506107736004803603608081101561072957600080fd5b81019080803573ffffffffffffffffffffffffffffffffffffffff169060200190929190803590602001909291908035906020019092919080359060200190929190505050612dd7565b604051808215151515815260200191505060405180910390f35b34801561079957600080fd5b506107a2613138565b604051808273ffffffffffffffffffffffffffffffffffffffff1673ffffffffffffffffffffffffffffffffffffffff16815260200191505060405180910390f35b3480156107f057600080fd5b506107f9613161565b604051808273ffffffffffffffffffffffffffffffffffffffff1673ffffffffffffffffffffffffffffffffffffffff16815260200191505060405180910390f35b34801561084757600080fd5b50610aba6004803603608081101561085e57600080fd5b810190808035906020019064010000000081111561087b57600080fd5b82018360208201111561088d57600080fd5b803590602001918460208302840111640100000000831117156108af57600080fd5b919080806020026020016040519081016040528093929190818152602001838360200280828437600081840152601f19601f8201169050808301925050505050505091929192908035906020019064010000000081111561090f57600080fd5b82018360208201111561092157600080fd5b8035906020019184602083028401116401000000008311171561094357600080fd5b919080806020026020016040519081016040528093929190818152602001838360200280828437600081840152601f19601f820116905080830192505050505050509192919290803590602001906401000000008111156109a357600080fd5b8201836020820111156109b557600080fd5b803590602001918460208302840111640100000000831117156109d757600080fd5b919080806020026020016040519081016040528093929190818152602001838360200280828437600081840152601f19601f82011690508083019250505050505050919291929080359060200190640100000000811115610a3757600080fd5b820183602082011115610a4957600080fd5b80359060200191846020830284011164010000000083111715610a6b57600080fd5b919080806020026020016040519081016040528093929190818152602001838360200280828437600081840152601f19601f820116905080830192505050505050509192919290505050613186565b604051808215151515815260200191505060405180910390f35b348015610ae057600080fd5b50610ae96132be565b604051808060200180602001838103835285818151815260200191508051906020019060200280838360005b83811015610b30578082015181840152602081019050610b15565b50505050905001838103825284818151815260200191508051906020019060200280838360005b83811015610b72578082015181840152602081019050610b57565b5050505090500194505050505060405180910390f35b348015610b9457600080fd5b50610bd760048036036020811015610bab57600080fd5b81019080803573ffffffffffffffffffffffffffffffffffffffff169060200190929190505050613395565b604051808215151515815260200191505060405180910390f35b348015610bfd57600080fd5b50610cb460048036036020811015610c1457600080fd5b8101908080359060200190640100000000811115610c3157600080fd5b820183602082011115610c4357600080fd5b80359060200191846020830284011164010000000083111715610c6557600080fd5b919080806020026020016040519081016040528093929190818152602001838360200280828437600081840152601f19601f82011690508083019250505050505050919291929050505061347b565b604051808215151515815260200191505060405180910390f35b348015610cda57600080fd5b50610ce3613568565b604051808273ffffffffffffffffffffffffffffffffffffffff1673ffffffffffffffffffffffffffffffffffffffff16815260200191505060405180910390f35b348015610d3157600080fd5b50610d7460048036036020811015610d4857600080fd5b81019080803573ffffffffffffffffffffffffffffffffffffffff169060200190929190505050613592565b604051808273ffffffffffffffffffffffffffffffffffffffff1673ffffffffffffffffffffffffffffffffffffffff16815260200191505060405180910390f35b348015610dc257600080fd5b50610dcb6136f6565b6040518080602001806020018060200180602001858103855289818151815260200191508051906020019060200280838360005b83811015610e1a578082015181840152602081019050610dff565b50505050905001858103845288818151815260200191508051906020019060200280838360005b83811015610e5c578082015181840152602081019050610e41565b50505050905001858103835287818151815260200191508051906020019060200280838360005b83811015610e9e578082015181840152602081019050610e83565b50505050905001858103825286818151815260200191508051906020019060200280838360005b83811015610ee0578082015181840152602081019050610ec5565b505050509050019850505050505050505060405180910390f35b348015610f0657600080fd5b50610f4960048036036020811015610f1d57600080fd5b81019080803573ffffffffffffffffffffffffffffffffffffffff16906020019092919050505061394b565b604051808273ffffffffffffffffffffffffffffffffffffffff1673ffffffffffffffffffffffffffffffffffffffff16815260200191505060405180910390f35b348015610f9757600080fd5b50610fa061397e565b6040518080602001806020018060200180602001858103855289818151815260200191508051906020019060200280838360005b83811015610fef578082015181840152602081019050610fd4565b50505050905001858103845288818151815260200191508051906020019060200280838360005b83811015611031578082015181840152602081019050611016565b50505050905001858103835287818151815260200191508051906020019060200280838360005b83811015611073578082015181840152602081019050611058565b50505050905001858103825286818151815260200191508051906020019060200280838360005b838110156110b557808201518184015260208101905061109a565b505050509050019850505050505050505060405180910390f35b3480156110db57600080fd5b5061113c600480360360808110156110f257600080fd5b81019080803573ffffffffffffffffffffffffffffffffffffffff169060200190929190803590602001909291908035906020019092919080359060200190929190505050613c54565b604051808215151515815260200191505060405180910390f35b34801561116257600080fd5b506111a56004803603602081101561117957600080fd5b81019080803573ffffffffffffffffffffffffffffffffffffffff169060200190929190505050613ea8565b604051808215151515815260200191505060405180910390f35b3480156111cb57600080fd5b5061143e600480360360808110156111e257600080fd5b81019080803590602001906401000000008111156111ff57600080fd5b82018360208201111561121157600080fd5b8035906020019184602083028401116401000000008311171561123357600080fd5b919080806020026020016040519081016040528093929190818152602001838360200280828437600081840152601f19601f8201169050808301925050505050505091929192908035906020019064010000000081111561129357600080fd5b8201836020820111156112a557600080fd5b803590602001918460208302840111640100000000831117156112c757600080fd5b919080806020026020016040519081016040528093929190818152602001838360200280828437600081840152601f19601f8201169050808301925050505050505091929192908035906020019064010000000081111561132757600080fd5b82018360208201111561133957600080fd5b8035906020019184602083028401116401000000008311171561135b57600080fd5b919080806020026020016040519081016040528093929190818152602001838360200280828437600081840152601f19601f820116905080830192505050505050509192919290803590602001906401000000008111156113bb57600080fd5b8201836020820111156113cd57600080fd5b803590602001918460208302840111640100000000831117156113ef57600080fd5b919080806020026020016040519081016040528093929190818152602001838360200280828437600081840152601f19601f820116905080830192505050505050509192919290505050613f83565b604051808215151515815260200191505060405180910390f35b61146181612d3c565b151561146c57600080fd5b3373ffffffffffffffffffffffffffffffffffffffff16600960008373ffffffffffffffffffffffffffffffffffffffff1673ffffffffffffffffffffffffffffffffffffffff16815260200190815260200160002060009054906101000a900473ffffffffffffffffffffffffffffffffffffffff1673ffffffffffffffffffffffffffffffffffffffff1614151561150557600080fd5b80600a60003373ffffffffffffffffffffffffffffffffffffffff1673ffffffffffffffffffffffffffffffffffffffff16815260200190815260200160002060006101000a81548173ffffffffffffffffffffffffffffffffffffffff021916908373ffffffffffffffffffffffffffffffffffffffff16021790555050565b60038054600181600116156101000203166002900480601f01602080910402602001604051908101604052809291908181526020018280546001816001161561010002031660029004801561161c5780601f106115f15761010080835404028352916020019161161c565b820191906000526020600020905b8154815290600101906020018083116115ff57829003601f168201915b505050505081565b61162d33612d3c565b151561163857600080fd5b600073ffffffffffffffffffffffffffffffffffffffff16600a60008373ffffffffffffffffffffffffffffffffffffffff1673ffffffffffffffffffffffffffffffffffffffff16815260200190815260200160002060009054906101000a900473ffffffffffffffffffffffffffffffffffffffff1673ffffffffffffffffffffffffffffffffffffffff161415156116d257600080fd5b6000600960003373ffffffffffffffffffffffffffffffffffffffff1673ffffffffffffffffffffffffffffffffffffffff16815260200190815260200160002060009054906101000a900473ffffffffffffffffffffffffffffffffffffffff16905081600960003373ffffffffffffffffffffffffffffffffffffffff1673ffffffffffffffffffffffffffffffffffffffff16815260200190815260200160002060006101000a81548173ffffffffffffffffffffffffffffffffffffffff021916908373ffffffffffffffffffffffffffffffffffffffff16021790555033600a60008473ffffffffffffffffffffffffffffffffffffffff1673ffffffffffffffffffffffffffffffffffffffff16815260200190815260200160002060006101000a81548173ffffffffffffffffffffffffffffffffffffffff021916908373ffffffffffffffffffffffffffffffffffffffff160217905550600a60008273ffffffffffffffffffffffffffffffffffffffff1673ffffffffffffffffffffffffffffffffffffffff16815260200190815260200160002060006101000a81549073ffffffffffffffffffffffffffffffffffffffff02191690558173ffffffffffffffffffffffffffffffffffffffff163373ffffffffffffffffffffffffffffffffffffffff167fca5ebc9b84eae8eaaa14db3d55b033e7bfe33877548ac26baaa0b5d9847a2fdf60405160405180910390a35050565b60008073ffffffffffffffffffffffffffffffffffffffff16600760008473ffffffffffffffffffffffffffffffffffffffff1673ffffffffffffffffffffffffffffffffffffffff16815260200190815260200160002060000160009054906101000a900473ffffffffffffffffffffffffffffffffffffffff1673ffffffffffffffffffffffffffffffffffffffff1614159050919050565b600860009054906101000a900473ffffffffffffffffffffffffffffffffffffffff1673ffffffffffffffffffffffffffffffffffffffff163373ffffffffffffffffffffffffffffffffffffffff161415156119e957600080fd5b600073ffffffffffffffffffffffffffffffffffffffff16600760008373ffffffffffffffffffffffffffffffffffffffff1673ffffffffffffffffffffffffffffffffffffffff16815260200190815260200160002060000160009054906101000a900473ffffffffffffffffffffffffffffffffffffffff1673ffffffffffffffffffffffffffffffffffffffff16141515611a8657600080fd5b600073ffffffffffffffffffffffffffffffffffffffff16600560008373ffffffffffffffffffffffffffffffffffffffff1673ffffffffffffffffffffffffffffffffffffffff16815260200190815260200160002060000160009054906101000a900473ffffffffffffffffffffffffffffffffffffffff1673ffffffffffffffffffffffffffffffffffffffff1614151515611b2457600080fd5b60068190806001815401808255809150509060018203906000526020600020016000909192909190916101000a81548173ffffffffffffffffffffffffffffffffffffffff021916908373ffffffffffffffffffffffffffffffffffffffff1602179055505080600760008373ffffffffffffffffffffffffffffffffffffffff1673ffffffffffffffffffffffffffffffffffffffff16815260200190815260200160002060000160006101000a81548173ffffffffffffffffffffffffffffffffffffffff021916908373ffffffffffffffffffffffffffffffffffffffff160217905550600160068054905003600760008373ffffffffffffffffffffffffffffffffffffffff1673ffffffffffffffffffffffffffffffffffffffff1681526020019081526020016000206001018190555050565b60008060009054906101000a900473ffffffffffffffffffffffffffffffffffffffff1673ffffffffffffffffffffffffffffffffffffffff163373ffffffffffffffffffffffffffffffffffffffff16141515611cba57600080fd5b600073ffffffffffffffffffffffffffffffffffffffff16600260008473ffffffffffffffffffffffffffffffffffffffff1673ffffffffffffffffffffffffffffffffffffffff16815260200190815260200160002060009054906101000a900473ffffffffffffffffffffffffffffffffffffffff1673ffffffffffffffffffffffffffffffffffffffff1614151515611d5557600080fd5b6000600260008473ffffffffffffffffffffffffffffffffffffffff1673ffffffffffffffffffffffffffffffffffffffff16815260200190815260200160002060006101000a81548173ffffffffffffffffffffffffffffffffffffffff021916908373ffffffffffffffffffffffffffffffffffffffff160217905550600260008373ffffffffffffffffffffffffffffffffffffffff1673ffffffffffffffffffffffffffffffffffffffff16815260200190815260200160002060006101000a81549073ffffffffffffffffffffffffffffffffffffffff021916905560008090505b600180549050811015611fb3578273ffffffffffffffffffffffffffffffffffffffff16600182815481101515611e6f57fe5b9060005260206000200160009054906101000a900473ffffffffffffffffffffffffffffffffffffffff1673ffffffffffffffffffffffffffffffffffffffff161415611fa657600180808054905003815481101515611ecb57fe5b9060005260206000200160009054906101000a900473ffffffffffffffffffffffffffffffffffffffff16600182815481101515611f0557fe5b9060005260206000200160006101000a81548173ffffffffffffffffffffffffffffffffffffffff021916908373ffffffffffffffffffffffffffffffffffffffff160217905550600180808054905003815481101515611f6257fe5b9060005260206000200160006101000a81549073ffffffffffffffffffffffffffffffffffffffff02191690556001805480919060019003611fa491906140bb565b505b8080600101915050611e3c565b5060019050919050565b6060600180548060200260200160405190810160405280929190818152602001828054801561204157602002820191906000526020600020905b8160009054906101000a900473ffffffffffffffffffffffffffffffffffffffff1673ffffffffffffffffffffffffffffffffffffffff1681526020019060010190808311611ff7575b5050505050905090565b60008060009054906101000a900473ffffffffffffffffffffffffffffffffffffffff1673ffffffffffffffffffffffffffffffffffffffff163373ffffffffffffffffffffffffffffffffffffffff161415156120a857600080fd5b6000809054906101000a900473ffffffffffffffffffffffffffffffffffffffff1673ffffffffffffffffffffffffffffffffffffffff16ff5b60606000600480549050905060608160405190808252806020026020018201604052801561211f5781602001602082028038833980820191505090505b50905060008090505b828110156121c85760048181548110151561213f57fe5b906000526020600020906004020160000160009054906101000a900473ffffffffffffffffffffffffffffffffffffffff16828281518110151561217f57fe5b9060200190602002019073ffffffffffffffffffffffffffffffffffffffff16908173ffffffffffffffffffffffffffffffffffffffff16815250508080600101915050612128565b50809250505090565b600860009054906101000a900473ffffffffffffffffffffffffffffffffffffffff1673ffffffffffffffffffffffffffffffffffffffff163373ffffffffffffffffffffffffffffffffffffffff1614151561222d57600080fd5b600073ffffffffffffffffffffffffffffffffffffffff16600760008373ffffffffffffffffffffffffffffffffffffffff1673ffffffffffffffffffffffffffffffffffffffff16815260200190815260200160002060000160009054906101000a900473ffffffffffffffffffffffffffffffffffffffff1673ffffffffffffffffffffffffffffffffffffffff16141515156122cb57600080fd5b6000600760008373ffffffffffffffffffffffffffffffffffffffff1673ffffffffffffffffffffffffffffffffffffffff168152602001908152602001600020600101549050600660016006805490500381548110151561232957fe5b9060005260206000200160009054906101000a900473ffffffffffffffffffffffffffffffffffffffff1660068281548110151561236357fe5b9060005260206000200160006101000a81548173ffffffffffffffffffffffffffffffffffffffff021916908373ffffffffffffffffffffffffffffffffffffffff16021790555060066001600680549050038154811015156123c257fe5b9060005260206000200160006101000a81549073ffffffffffffffffffffffffffffffffffffffff0219169055806007600060068481548110151561240357fe5b9060005260206000200160009054906101000a900473ffffffffffffffffffffffffffffffffffffffff1673ffffffffffffffffffffffffffffffffffffffff1673ffffffffffffffffffffffffffffffffffffffff16815260200190815260200160002060010181905550600760008373ffffffffffffffffffffffffffffffffffffffff1673ffffffffffffffffffffffffffffffffffffffff168152602001908152602001600020600080820160006101000a81549073ffffffffffffffffffffffffffffffffffffffff02191690556001820160009055505060068054809190600190036124f591906140e7565b505050565b60008073ffffffffffffffffffffffffffffffffffffffff16600260003373ffffffffffffffffffffffffffffffffffffffff1673ffffffffffffffffffffffffffffffffffffffff16815260200190815260200160002060009054906101000a900473ffffffffffffffffffffffffffffffffffffffff1673ffffffffffffffffffffffffffffffffffffffff161415151561259657600080fd5b600073ffffffffffffffffffffffffffffffffffffffff16600560008473ffffffffffffffffffffffffffffffffffffffff1673ffffffffffffffffffffffffffffffffffffffff16815260200190815260200160002060000160009054906101000a900473ffffffffffffffffffffffffffffffffffffffff1673ffffffffffffffffffffffffffffffffffffffff161415151561263457600080fd5b600073ffffffffffffffffffffffffffffffffffffffff16600760008473ffffffffffffffffffffffffffffffffffffffff1673ffffffffffffffffffffffffffffffffffffffff16815260200190815260200160002060000160009054906101000a900473ffffffffffffffffffffffffffffffffffffffff1673ffffffffffffffffffffffffffffffffffffffff161415156126d157600080fd5b60046001600480549050038154811015156126e857fe5b90600052602060002090600402016004600560008573ffffffffffffffffffffffffffffffffffffffff1673ffffffffffffffffffffffffffffffffffffffff1681526020019081526020016000206001015481548110151561274757fe5b90600052602060002090600402016000820160009054906101000a900473ffffffffffffffffffffffffffffffffffffffff168160000160006101000a81548173ffffffffffffffffffffffffffffffffffffffff021916908373ffffffffffffffffffffffffffffffffffffffff160217905550600182015481600101556002820154816002015560038201548160030155905050600560008373ffffffffffffffffffffffffffffffffffffffff1673ffffffffffffffffffffffffffffffffffffffff1681526020019081526020016000206001015460056000600460016004805490500381548110151561283b57fe5b906000526020600020906004020160000160009054906101000a900473ffffffffffffffffffffffffffffffffffffffff1673ffffffffffffffffffffffffffffffffffffffff1673ffffffffffffffffffffffffffffffffffffffff1681526020019081526020016000206001018190555060046001600480549050038154811015156128c557fe5b9060005260206000209060040201600080820160006101000a81549073ffffffffffffffffffffffffffffffffffffffff02191690556001820160009055600282016000905560038201600090555050600560008373ffffffffffffffffffffffffffffffffffffffff1673ffffffffffffffffffffffffffffffffffffffff168152602001908152602001600020600080820160006101000a81549073ffffffffffffffffffffffffffffffffffffffff021916905560018201600090555050600480548091906001900361299b9190614113565b508173ffffffffffffffffffffffffffffffffffffffff167f468305133c010ade14f30fceab8c26460cc84b5efb05d75e7c1b3e290ef8fefa60405160405180910390a260019050919050565b60008060009054906101000a900473ffffffffffffffffffffffffffffffffffffffff1673ffffffffffffffffffffffffffffffffffffffff163373ffffffffffffffffffffffffffffffffffffffff16141515612a4557600080fd5b600073ffffffffffffffffffffffffffffffffffffffff16600260008473ffffffffffffffffffffffffffffffffffffffff1673ffffffffffffffffffffffffffffffffffffffff16815260200190815260200160002060009054906101000a900473ffffffffffffffffffffffffffffffffffffffff1673ffffffffffffffffffffffffffffffffffffffff16141515612adf57600080fd5b81600260008473ffffffffffffffffffffffffffffffffffffffff1673ffffffffffffffffffffffffffffffffffffffff16815260200190815260200160002060006101000a81548173ffffffffffffffffffffffffffffffffffffffff021916908373ffffffffffffffffffffffffffffffffffffffff16021790555060018290806001815401808255809150509060018203906000526020600020016000909192909190916101000a81548173ffffffffffffffffffffffffffffffffffffffff021916908373ffffffffffffffffffffffffffffffffffffffff1602179055505060019050919050565b606060006006805490509050606081604051908082528060200260200182016040528015612c095781602001602082028038833980820191505090505b50905060008090505b82811015612d3357600060056000600684815481101515612c2f57fe5b9060005260206000200160009054906101000a900473ffffffffffffffffffffffffffffffffffffffff1673ffffffffffffffffffffffffffffffffffffffff1673ffffffffffffffffffffffffffffffffffffffff168152602001908152602001600020600101549050600481815481101515612ca957fe5b906000526020600020906004020160000160009054906101000a900473ffffffffffffffffffffffffffffffffffffffff168383815181101515612ce957fe5b9060200190602002019073ffffffffffffffffffffffffffffffffffffffff16908173ffffffffffffffffffffffffffffffffffffffff1681525050508080600101915050612c12565b50809250505090565b60008073ffffffffffffffffffffffffffffffffffffffff16600560008473ffffffffffffffffffffffffffffffffffffffff1673ffffffffffffffffffffffffffffffffffffffff16815260200190815260200160002060000160009054906101000a900473ffffffffffffffffffffffffffffffffffffffff1673ffffffffffffffffffffffffffffffffffffffff1614159050919050565b60008073ffffffffffffffffffffffffffffffffffffffff16600260003373ffffffffffffffffffffffffffffffffffffffff1673ffffffffffffffffffffffffffffffffffffffff16815260200190815260200160002060009054906101000a900473ffffffffffffffffffffffffffffffffffffffff1673ffffffffffffffffffffffffffffffffffffffff1614151515612e7357600080fd5b600073ffffffffffffffffffffffffffffffffffffffff16600560008773ffffffffffffffffffffffffffffffffffffffff1673ffffffffffffffffffffffffffffffffffffffff16815260200190815260200160002060000160009054906101000a900473ffffffffffffffffffffffffffffffffffffffff1673ffffffffffffffffffffffffffffffffffffffff16141515612f1057600080fd5b612f18614145565b85816000019073ffffffffffffffffffffffffffffffffffffffff16908173ffffffffffffffffffffffffffffffffffffffff16815250508481602001818152505083816040018181525050828160600181815250506004819080600181540180825580915050906001820390600052602060002090600402016000909192909190915060008201518160000160006101000a81548173ffffffffffffffffffffffffffffffffffffffff021916908373ffffffffffffffffffffffffffffffffffffffff16021790555060208201518160010155604082015181600201556060820151816003015550505085600560008873ffffffffffffffffffffffffffffffffffffffff1673ffffffffffffffffffffffffffffffffffffffff16815260200190815260200160002060000160006101000a81548173ffffffffffffffffffffffffffffffffffffffff021916908373ffffffffffffffffffffffffffffffffffffffff160217905550600160048054905003600560008873ffffffffffffffffffffffffffffffffffffffff1673ffffffffffffffffffffffffffffffffffffffff16815260200190815260200160002060010181905550828673ffffffffffffffffffffffffffffffffffffffff167f1f0e0433d82137325a5487c23f2f9a932e6c911fcd18807cd83facdf84b57f8b8787604051808381526020018281526020019250505060405180910390a36001915050949350505050565b60008060009054906101000a900473ffffffffffffffffffffffffffffffffffffffff16905090565b6000809054906101000a900473ffffffffffffffffffffffffffffffffffffffff1681565b60008073ffffffffffffffffffffffffffffffffffffffff16600260003373ffffffffffffffffffffffffffffffffffffffff1673ffffffffffffffffffffffffffffffffffffffff16815260200190815260200160002060009054906101000a900473ffffffffffffffffffffffffffffffffffffffff1673ffffffffffffffffffffffffffffffffffffffff161415151561322257600080fd5b60008090505b85518110156132b157613299868281518110151561324257fe5b90602001906020020151868381518110151561325a57fe5b90602001906020020151868481518110151561327257fe5b90602001906020020151868581518110151561328a57fe5b90602001906020020151613c54565b15156132a457600080fd5b8080600101915050613228565b5060019050949350505050565b60608060606132cb6120e2565b9050606081516040519080825280602002602001820160405280156132ff5781602001602082028038833980820191505090505b50905060008090505b825181101561338857613331838281518110151561332257fe5b90602001906020020151613592565b828281518110151561333f57fe5b9060200190602002019073ffffffffffffffffffffffffffffffffffffffff16908173ffffffffffffffffffffffffffffffffffffffff16815250508080600101915050613308565b5081819350935050509091565b60008073ffffffffffffffffffffffffffffffffffffffff16600260003373ffffffffffffffffffffffffffffffffffffffff1673ffffffffffffffffffffffffffffffffffffffff16815260200190815260200160002060009054906101000a900473ffffffffffffffffffffffffffffffffffffffff1673ffffffffffffffffffffffffffffffffffffffff161415151561343157600080fd5b81600860006101000a81548173ffffffffffffffffffffffffffffffffffffffff021916908373ffffffffffffffffffffffffffffffffffffffff16021790555060019050919050565b60008073ffffffffffffffffffffffffffffffffffffffff16600260003373ffffffffffffffffffffffffffffffffffffffff1673ffffffffffffffffffffffffffffffffffffffff16815260200190815260200160002060009054906101000a900473ffffffffffffffffffffffffffffffffffffffff1673ffffffffffffffffffffffffffffffffffffffff161415151561351757600080fd5b60008090505b825181101561355e57613546838281518110151561353757fe5b906020019060200201516124fa565b151561355157600080fd5b808060010191505061351d565b5060019050919050565b6000600860009054906101000a900473ffffffffffffffffffffffffffffffffffffffff16905090565b60008173ffffffffffffffffffffffffffffffffffffffff16600a6000600960008673ffffffffffffffffffffffffffffffffffffffff1673ffffffffffffffffffffffffffffffffffffffff16815260200190815260200160002060009054906101000a900473ffffffffffffffffffffffffffffffffffffffff1673ffffffffffffffffffffffffffffffffffffffff1673ffffffffffffffffffffffffffffffffffffffff16815260200190815260200160002060009054906101000a900473ffffffffffffffffffffffffffffffffffffffff1673ffffffffffffffffffffffffffffffffffffffff1614156136ed57600960008373ffffffffffffffffffffffffffffffffffffffff1673ffffffffffffffffffffffffffffffffffffffff16815260200190815260200160002060009054906101000a900473ffffffffffffffffffffffffffffffffffffffff1690506136f1565b8190505b919050565b606080606080600060048054905090506060816040519080825280602002602001820160405280156137375781602001602082028038833980820191505090505b50905060608260405190808252806020026020018201604052801561376b5781602001602082028038833980820191505090505b50905060608360405190808252806020026020018201604052801561379f5781602001602082028038833980820191505090505b5090506060846040519080825280602002602001820160405280156137d35781602001602082028038833980820191505090505b50905060008090505b85811015613933576004818154811015156137f357fe5b906000526020600020906004020160000160009054906101000a900473ffffffffffffffffffffffffffffffffffffffff16858281518110151561383357fe5b9060200190602002019073ffffffffffffffffffffffffffffffffffffffff16908173ffffffffffffffffffffffffffffffffffffffff168152505060048181548110151561387e57fe5b906000526020600020906004020160010154848281518110151561389e57fe5b90602001906020020181815250506004818154811015156138bb57fe5b90600052602060002090600402016002015483828151811015156138db57fe5b90602001906020020181815250506004818154811015156138f857fe5b906000526020600020906004020160030154828281518110151561391857fe5b906020019060200201818152505080806001019150506137dc565b50838383839850985098509850505050505090919293565b60026020528060005260406000206000915054906101000a900473ffffffffffffffffffffffffffffffffffffffff1681565b606080606080600060068054905090506060816040519080825280602002602001820160405280156139bf5781602001602082028038833980820191505090505b5090506060826040519080825280602002602001820160405280156139f35781602001602082028038833980820191505090505b509050606083604051908082528060200260200182016040528015613a275781602001602082028038833980820191505090505b509050606084604051908082528060200260200182016040528015613a5b5781602001602082028038833980820191505090505b50905060008090505b85811015613c3c57600060056000600684815481101515613a8157fe5b9060005260206000200160009054906101000a900473ffffffffffffffffffffffffffffffffffffffff1673ffffffffffffffffffffffffffffffffffffffff1673ffffffffffffffffffffffffffffffffffffffff168152602001908152602001600020600101549050600481815481101515613afb57fe5b906000526020600020906004020160000160009054906101000a900473ffffffffffffffffffffffffffffffffffffffff168683815181101515613b3b57fe5b9060200190602002019073ffffffffffffffffffffffffffffffffffffffff16908173ffffffffffffffffffffffffffffffffffffffff1681525050600481815481101515613b8657fe5b9060005260206000209060040201600101548583815181101515613ba657fe5b9060200190602002018181525050600481815481101515613bc357fe5b9060005260206000209060040201600201548483815181101515613be357fe5b9060200190602002018181525050600481815481101515613c0057fe5b9060005260206000209060040201600301548383815181101515613c2057fe5b9060200190602002018181525050508080600101915050613a64565b50838383839850985098509850505050505090919293565b60008073ffffffffffffffffffffffffffffffffffffffff16600260003373ffffffffffffffffffffffffffffffffffffffff1673ffffffffffffffffffffffffffffffffffffffff16815260200190815260200160002060009054906101000a900473ffffffffffffffffffffffffffffffffffffffff1673ffffffffffffffffffffffffffffffffffffffff1614151515613cf057600080fd5b600073ffffffffffffffffffffffffffffffffffffffff16600560008773ffffffffffffffffffffffffffffffffffffffff1673ffffffffffffffffffffffffffffffffffffffff16815260200190815260200160002060000160009054906101000a900473ffffffffffffffffffffffffffffffffffffffff1673ffffffffffffffffffffffffffffffffffffffff1614151515613d8e57600080fd5b6000600560008773ffffffffffffffffffffffffffffffffffffffff1673ffffffffffffffffffffffffffffffffffffffff16815260200190815260200160002060010154905084600482815481101515613de557fe5b90600052602060002090600402016001018190555083600482815481101515613e0a57fe5b90600052602060002090600402016002018190555082600482815481101515613e2f57fe5b906000526020600020906004020160030181905550828673ffffffffffffffffffffffffffffffffffffffff167f5d6bae5ddcb39615e06b1e2e5926890ad3f2b1dbe5d43bc7350c83d40e8914268787604051808381526020018281526020019250505060405180910390a36001915050949350505050565b60008060009054906101000a900473ffffffffffffffffffffffffffffffffffffffff1673ffffffffffffffffffffffffffffffffffffffff163373ffffffffffffffffffffffffffffffffffffffff16141515613f0557600080fd5b816000806101000a81548173ffffffffffffffffffffffffffffffffffffffff021916908373ffffffffffffffffffffffffffffffffffffffff160217905550613f4e826129e8565b50613f796000809054906101000a900473ffffffffffffffffffffffffffffffffffffffff16611c5d565b5060019050919050565b60008073ffffffffffffffffffffffffffffffffffffffff16600260003373ffffffffffffffffffffffffffffffffffffffff1673ffffffffffffffffffffffffffffffffffffffff16815260200190815260200160002060009054906101000a900473ffffffffffffffffffffffffffffffffffffffff1673ffffffffffffffffffffffffffffffffffffffff161415151561401f57600080fd5b60008090505b85518110156140ae57614096868281518110151561403f57fe5b90602001906020020151868381518110151561405757fe5b90602001906020020151868481518110151561406f57fe5b90602001906020020151868581518110151561408757fe5b90602001906020020151612dd7565b15156140a157600080fd5b8080600101915050614025565b5060019050949350505050565b8154818355818111156140e2578183600052602060002091820191016140e1919061418d565b5b505050565b81548183558181111561410e5781836000526020600020918201910161410d919061418d565b5b505050565b8154818355818111156141405760040281600402836000526020600020918201910161413f91906141b2565b5b505050565b608060405190810160405280600073ffffffffffffffffffffffffffffffffffffffff1681526020016000801916815260200160008019168152602001600080191681525090565b6141af91905b808211156141ab576000816000905550600101614193565b5090565b90565b61420d91905b8082111561420957600080820160006101000a81549073ffffffffffffffffffffffffffffffffffffffff0219169055600182016000905560028201600090556003820160009055506004016141b8565b5090565b9056fea165627a7a723058209340c03cdb183b66c897f57570adf0c8b6a936ddb54800c7f4bab9dc57ad85510029",
  "linkReferences": {},
  "deployedLinkReferences": {}
}