{
  "_format": "hh-sol-artifact-1",
  "contractName": "HpbVote",
  "sourceName": "contracts/vote.sol",
  "abi": [
    {
      "constant": true,
      "inputs": [],
      "name": "fetchAllVoteResult",
      "outputs": [
        {
          "name": "",
          "type": "address[]"
        },
        {
          "name": "",
          "type": "uint256[]"
        }
      ],
      "payable": false,
      "stateMutability": "view",
      "type": "function"
    },
    {
      "constant": true,
      "inputs": [
        {
          "name": "voterAddr",
          "type": "address"
        }
      ],
      "name": "fetchVoteNumForVoter",
      "outputs": [
        {
          "name": "",
          "type": "uint256"
        }
      ],
      "payable": false,
      "stateMutability": "view",
      "type": "function"
    },
    {
      "constant": true,
      "inputs": [
        {
          "name": "voterAddr",
          "type": "address"
        }
      ],
      "name": "fetchVoteInfoForVoter",
      "outputs": [
        {
          "name": "",
          "type": "address[]"
        },
        {
          "name": "",
          "type": "uint256[]"
        }
      ],
      "payable": false,
      "stateMutability": "view",
      "type": "function"
    },
    {
      "constant": true,
      "inputs": [],
      "name": "minLimit",
      "outputs": [
        {
          "name": "",
          "type": "uint256"
        }
      ],
      "payable": false,
      "stateMutability": "view",
      "type": "function"
    },
    {
      "constant": false,
      "inputs": [
        {
          "name": "addr",
          "type": "address"
        }
      ],
      "name": "deleteAdmin",
      "outputs": [
        {
          "name": "",
          "type": "bool"
        }
      ],
      "payable": false,
      "stateMutability": "nonpayable",
      "type": "function"
    },
    {
      "constant": false,
      "inputs": [
        {
          "name": "gasLeftLimit",
          "type": "uint256"
        }
      ],
      "name": "setGasLeftLimit",
      "outputs": [
        {
          "name": "",
          "type": "bool"
        }
      ],
      "payable": false,
      "stateMutability": "nonpayable",
      "type": "function"
    },
    {
      "constant": true,
      "inputs": [],
      "name": "getAdmins",
      "outputs": [
        {
          "name": "",
          "type": "address[]"
        }
      ],
      "payable": false,
      "stateMutability": "view",
      "type": "function"
    },
    {
      "constant": false,
      "inputs": [],
      "name": "kill",
      "outputs": [
        {
          "name": "",
          "type": "bool"
        }
      ],
      "payable": false,
      "stateMutability": "nonpayable",
      "type": "function"
    },
    {
      "constant": true,
      "inputs": [
        {
          "name": "voterAddr",
          "type": "address"
        },
        {
          "name": "boeAddr",
          "type": "address"
        }
      ],
      "name": "fetchVoteNumForVoterToCandidate",
      "outputs": [
        {
          "name": "",
          "type": "uint256"
        }
      ],
      "payable": false,
      "stateMutability": "view",
      "type": "function"
    },
    {
      "constant": false,
      "inputs": [
        {
          "name": "boeaddr",
          "type": "address"
        },
        {
          "name": "num",
          "type": "uint256"
        }
      ],
      "name": "vote",
      "outputs": [],
      "payable": false,
      "stateMutability": "nonpayable",
      "type": "function"
    },
    {
      "constant": false,
      "inputs": [
        {
          "name": "_minLimit",
          "type": "uint256"
        }
      ],
      "name": "setMinLimit",
      "outputs": [
        {
          "name": "",
          "type": "bool"
        }
      ],
      "payable": false,
      "stateMutability": "nonpayable",
      "type": "function"
    },
    {
      "constant": false,
      "inputs": [
        {
          "name": "boeaddr",
          "type": "address"
        }
      ],
      "name": "cancelVoteForCandidate",
      "outputs": [
        {
          "name": "",
          "type": "bool"
        }
      ],
      "payable": false,
      "stateMutability": "nonpayable",
      "type": "function"
    },
    {
      "constant": false,
      "inputs": [
        {
          "name": "addr",
          "type": "address"
        }
      ],
      "name": "addAdmin",
      "outputs": [
        {
          "name": "",
          "type": "bool"
        }
      ],
      "payable": false,
      "stateMutability": "nonpayable",
      "type": "function"
    },
    {
      "constant": true,
      "inputs": [
        {
          "name": "boeaddr",
          "type": "address"
        }
      ],
      "name": "fetchVoteNumForCandidate",
      "outputs": [
        {
          "name": "",
          "type": "uint256"
        }
      ],
      "payable": false,
      "stateMutability": "view",
      "type": "function"
    },
    {
      "constant": false,
      "inputs": [],
      "name": "refreshVoteForAll",
      "outputs": [],
      "payable": false,
      "stateMutability": "nonpayable",
      "type": "function"
    },
    {
      "constant": true,
      "inputs": [],
      "name": "getOwner",
      "outputs": [
        {
          "name": "",
          "type": "address"
        }
      ],
      "payable": false,
      "stateMutability": "view",
      "type": "function"
    },
    {
      "constant": true,
      "inputs": [],
      "name": "owner",
      "outputs": [
        {
          "name": "",
          "type": "address"
        }
      ],
      "payable": false,
      "stateMutability": "view",
      "type": "function"
    },
    {
      "constant": false,
      "inputs": [],
      "name": "cancelVote",
      "outputs": [],
      "payable": false,
      "stateMutability": "nonpayable",
      "type": "function"
    },
    {
      "constant": true,
      "inputs": [],
      "name": "getNodeContract",
      "outputs": [
        {
          "name": "",
          "type": "address"
        }
      ],
      "payable": false,
      "stateMutability": "view",
      "type": "function"
    },
    {
      "constant": true,
      "inputs": [],
      "name": "fetchAllVoters",
      "outputs": [
        {
          "name": "",
          "type": "address[]"
        },
        {
          "name": "",
          "type": "uint256[]"
        }
      ],
      "payable": false,
      "stateMutability": "view",
      "type": "function"
    },
    {
      "constant": true,
      "inputs": [
        {
          "name": "",
          "type": "address"
        }
      ],
      "name": "adminMap",
      "outputs": [
        {
          "name": "",
          "type": "address"
        }
      ],
      "payable": false,
      "stateMutability": "view",
      "type": "function"
    },
    {
      "constant": false,
      "inputs": [
        {
          "name": "boeaddrs",
          "type": "address[]"
        },
        {
          "name": "nums",
          "type": "uint256[]"
        }
      ],
      "name": "batchvote",
      "outputs": [],
      "payable": false,
      "stateMutability": "nonpayable",
      "type": "function"
    },
    {
      "constant": true,
      "inputs": [
        {
          "name": "boeaddr",
          "type": "address"
        }
      ],
      "name": "fetchVoteInfoForCandidate",
      "outputs": [
        {
          "name": "",
          "type": "address[]"
        },
        {
          "name": "",
          "type": "uint256[]"
        }
      ],
      "payable": false,
      "stateMutability": "view",
      "type": "function"
    },
    {
      "constant": false,
      "inputs": [
        {
          "name": "newOwner",
          "type": "address"
        }
      ],
      "name": "transferOwnership",
      "outputs": [
        {
          "name": "",
          "type": "bool"
        }
      ],
      "payable": false,
      "stateMutability": "nonpayable",
      "type": "function"
    },
    {
      "constant": false,
      "inputs": [
        {
          "name": "addr",
          "type": "address"
        }
      ],
      "name": "setNodeContract",
      "outputs": [],
      "payable": false,
      "stateMutability": "nonpayable",
      "type": "function"
    },
    {
      "inputs": [],
      "payable": true,
      "stateMutability": "payable",
      "type": "constructor"
    },
    {
      "payable": true,
      "stateMutability": "payable",
      "type": "fallback"
    },
    {
      "anonymous": false,
      "inputs": [
        {
          "indexed": true,
          "name": "approved",
          "type": "bool"
        },
        {
          "indexed": true,
          "name": "operator",
          "type": "address"
        },
        {
          "indexed": true,
          "name": "owner",
          "type": "address"
        }
      ],
      "name": "ApprovalFor",
      "type": "event"
    },
    {
      "anonymous": false,
      "inputs": [
        {
          "indexed": true,
          "name": "flag",
          "type": "uint256"
        },
        {
          "indexed": true,
          "name": "candidateAddr",
          "type": "address"
        },
        {
          "indexed": true,
          "name": "voteAddr",
          "type": "address"
        },
        {
          "indexed": false,
          "name": "num",
          "type": "uint256"
        }
      ],
      "name": "DoVoted",
      "type": "event"
    },
    {
      "anonymous": false,
      "inputs": [
        {
          "indexed": true,
          "name": "sender",
          "type": "address"
        },
        {
          "indexed": false,
          "name": "amount",
          "type": "uint256"
        }
      ],
      "name": "ReceivedHpb",
      "type": "event"
    }
  ],
  "bytecode": "0x6080604052620f4240600555670de0b6b3a7640000600655336000806101000a81548173ffffffffffffffffffffffffffffffffffffffff021916908373ffffffffffffffffffffffffffffffffffffffff1602179055506000809054906101000a900473ffffffffffffffffffffffffffffffffffffffff16600260008060009054906101000a900473ffffffffffffffffffffffffffffffffffffffff1673ffffffffffffffffffffffffffffffffffffffff1673ffffffffffffffffffffffffffffffffffffffff16815260200190815260200160002060006101000a81548173ffffffffffffffffffffffffffffffffffffffff021916908373ffffffffffffffffffffffffffffffffffffffff160217905550614161806101266000396000f3fe608060405260043610610143576000357c0100000000000000000000000000000000000000000000000000000000900480630304363a14610193578063062ff957146102475780631391ff43146102ac5780631fd8088d1461039a57806327e1f7df146103c5578063306419a61461042e57806331ae450b1461048157806341c0e1b5146104ed5780635c8573331461051c5780635f74bbde146105a15780636ec6d4a6146105fc5780636eefbd7d1461064f57806370480275146106b8578063753cb4eb14610721578063816194f814610786578063893d20e81461079d5780638da5cb5b146107f457806395c965541461084b5780639fd2e0be14610862578063d2d3d7fb146108b9578063dbbc830b1461096d578063e1e325c1146109fe578063f25d242214610b57578063f2fde38b14610c45578063f50fd92614610cae575b3373ffffffffffffffffffffffffffffffffffffffff167f7129701436f0cdc265d1e2cda298e8a1ccd6ed5fce7f69343e16530b07a2e06e346040518082815260200191505060405180910390a2005b34801561019f57600080fd5b506101a8610cff565b604051808060200180602001838103835285818151815260200191508051906020019060200280838360005b838110156101ef5780820151818401526020810190506101d4565b50505050905001838103825284818151815260200191508051906020019060200280838360005b83811015610231578082015181840152602081019050610216565b5050505090500194505050505060405180910390f35b34801561025357600080fd5b506102966004803603602081101561026a57600080fd5b81019080803573ffffffffffffffffffffffffffffffffffffffff169060200190929190505050610ef1565b6040518082815260200191505060405180910390f35b3480156102b857600080fd5b506102fb600480360360208110156102cf57600080fd5b81019080803573ffffffffffffffffffffffffffffffffffffffff169060200190929190505050611017565b604051808060200180602001838103835285818151815260200191508051906020019060200280838360005b83811015610342578082015181840152602081019050610327565b50505050905001838103825284818151815260200191508051906020019060200280838360005b83811015610384578082015181840152602081019050610369565b5050505090500194505050505060405180910390f35b3480156103a657600080fd5b506103af61145a565b6040518082815260200191505060405180910390f35b3480156103d157600080fd5b50610414600480360360208110156103e857600080fd5b81019080803573ffffffffffffffffffffffffffffffffffffffff169060200190929190505050611460565b604051808215151515815260200191505060405180910390f35b34801561043a57600080fd5b506104676004803603602081101561045157600080fd5b81019080803590602001909291905050506117c0565b604051808215151515815260200191505060405180910390f35b34801561048d57600080fd5b5061049661186c565b6040518080602001828103825283818151815260200191508051906020019060200280838360005b838110156104d95780820151818401526020810190506104be565b505050509050019250505060405180910390f35b3480156104f957600080fd5b506105026118fa565b604051808215151515815260200191505060405180910390f35b34801561052857600080fd5b5061058b6004803603604081101561053f57600080fd5b81019080803573ffffffffffffffffffffffffffffffffffffffff169060200190929190803573ffffffffffffffffffffffffffffffffffffffff169060200190929190505050611991565b6040518082815260200191505060405180910390f35b3480156105ad57600080fd5b506105fa600480360360408110156105c457600080fd5b81019080803573ffffffffffffffffffffffffffffffffffffffff16906020019092919080359060200190929190505050611bcc565b005b34801561060857600080fd5b506106356004803603602081101561061f57600080fd5b8101908080359060200190929190505050611be2565b604051808215151515815260200191505060405180910390f35b34801561065b57600080fd5b5061069e6004803603602081101561067257600080fd5b81019080803573ffffffffffffffffffffffffffffffffffffffff169060200190929190505050611ca4565b604051808215151515815260200191505060405180910390f35b3480156106c457600080fd5b50610707600480360360208110156106db57600080fd5b81019080803573ffffffffffffffffffffffffffffffffffffffff169060200190929190505050612238565b604051808215151515815260200191505060405180910390f35b34801561072d57600080fd5b506107706004803603602081101561074457600080fd5b81019080803573ffffffffffffffffffffffffffffffffffffffff16906020019092919050505061241c565b6040518082815260200191505060405180910390f35b34801561079257600080fd5b5061079b612465565b005b3480156107a957600080fd5b506107b261258b565b604051808273ffffffffffffffffffffffffffffffffffffffff1673ffffffffffffffffffffffffffffffffffffffff16815260200191505060405180910390f35b34801561080057600080fd5b506108096125b4565b604051808273ffffffffffffffffffffffffffffffffffffffff1673ffffffffffffffffffffffffffffffffffffffff16815260200191505060405180910390f35b34801561085757600080fd5b506108606125d9565b005b34801561086e57600080fd5b506108776125e4565b604051808273ffffffffffffffffffffffffffffffffffffffff1673ffffffffffffffffffffffffffffffffffffffff16815260200191505060405180910390f35b3480156108c557600080fd5b506108ce61260e565b604051808060200180602001838103835285818151815260200191508051906020019060200280838360005b838110156109155780820151818401526020810190506108fa565b50505050905001838103825284818151815260200191508051906020019060200280838360005b8381101561095757808201518184015260208101905061093c565b5050505090500194505050505060405180910390f35b34801561097957600080fd5b506109bc6004803603602081101561099057600080fd5b81019080803573ffffffffffffffffffffffffffffffffffffffff1690602001909291905050506127ff565b604051808273ffffffffffffffffffffffffffffffffffffffff1673ffffffffffffffffffffffffffffffffffffffff16815260200191505060405180910390f35b348015610a0a57600080fd5b50610b5560048036036040811015610a2157600080fd5b8101908080359060200190640100000000811115610a3e57600080fd5b820183602082011115610a5057600080fd5b80359060200191846020830284011164010000000083111715610a7257600080fd5b919080806020026020016040519081016040528093929190818152602001838360200280828437600081840152601f19601f82011690508083019250505050505050919291929080359060200190640100000000811115610ad257600080fd5b820183602082011115610ae457600080fd5b80359060200191846020830284011164010000000083111715610b0657600080fd5b919080806020026020016040519081016040528093929190818152602001838360200280828437600081840152601f19601f820116905080830192505050505050509192919290505050612832565b005b348015610b6357600080fd5b50610ba660048036036020811015610b7a57600080fd5b81019080803573ffffffffffffffffffffffffffffffffffffffff1690602001909291905050506128a3565b604051808060200180602001838103835285818151815260200191508051906020019060200280838360005b83811015610bed578082015181840152602081019050610bd2565b50505050905001838103825284818151815260200191508051906020019060200280838360005b83811015610c2f578082015181840152602081019050610c14565b5050505090500194505050505060405180910390f35b348015610c5157600080fd5b50610c9460048036036020811015610c6857600080fd5b81019080803573ffffffffffffffffffffffffffffffffffffffff169060200190929190505050612be2565b604051808215151515815260200191505060405180910390f35b348015610cba57600080fd5b50610cfd60048036036020811015610cd157600080fd5b81019080803573ffffffffffffffffffffffffffffffffffffffff169060200190929190505050612cbd565b005b6060806060600360009054906101000a900473ffffffffffffffffffffffffffffffffffffffff1673ffffffffffffffffffffffffffffffffffffffff1663794cef016040518163ffffffff167c010000000000000000000000000000000000000000000000000000000002815260040160006040518083038186803b158015610d8857600080fd5b505afa158015610d9c573d6000803e3d6000fd5b505050506040513d6000823e3d601f19601f820116820180604052506020811015610dc657600080fd5b810190808051640100000000811115610dde57600080fd5b82810190506020810184811115610df457600080fd5b8151856020820283011164010000000082111715610e1157600080fd5b50509291905050509050600081519050606081604051908082528060200260200182016040528015610e525781602001602082028038833980820191505090505b50905060008090505b82811015610ee357600960008583815181101515610e7557fe5b9060200190602002015173ffffffffffffffffffffffffffffffffffffffff1673ffffffffffffffffffffffffffffffffffffffff168152602001908152602001600020548282815181101515610ec857fe5b90602001906020020181815250508080600101915050610e5b565b508281945094505050509091565b6000610efb613f77565b600860008473ffffffffffffffffffffffffffffffffffffffff1673ffffffffffffffffffffffffffffffffffffffff1681526020019081526020016000206040805190810160405290816000820160009054906101000a900473ffffffffffffffffffffffffffffffffffffffff1673ffffffffffffffffffffffffffffffffffffffff1673ffffffffffffffffffffffffffffffffffffffff16815260200160018201548152505090508273ffffffffffffffffffffffffffffffffffffffff16816000015173ffffffffffffffffffffffffffffffffffffffff16141561100c5760078160200151815481101515610ff257fe5b906000526020600020906004020160010154915050611012565b60009150505b919050565b606080611022613f77565b600860008573ffffffffffffffffffffffffffffffffffffffff1673ffffffffffffffffffffffffffffffffffffffff1681526020019081526020016000206040805190810160405290816000820160009054906101000a900473ffffffffffffffffffffffffffffffffffffffff1673ffffffffffffffffffffffffffffffffffffffff1673ffffffffffffffffffffffffffffffffffffffff1681526020016001820154815250509050600073ffffffffffffffffffffffffffffffffffffffff16816000015173ffffffffffffffffffffffffffffffffffffffff1614156111795760006040519080825280602002602001820160405280156111375781602001602082028038833980820191505090505b5060006040519080825280602002602001820160405280156111685781602001602082028038833980820191505090505b508191508090509250925050611455565b60006007826020015181548110151561118e57fe5b90600052602060002090600402016001015414156112185760006040519080825280602002602001820160405280156111d65781602001602082028038833980820191505090505b5060006040519080825280602002602001820160405280156112075781602001602082028038833980820191505090505b508191508090509250925050611455565b60006007826020015181548110151561122d57fe5b90600052602060002090600402016002018054905090506060816040519080825280602002602001820160405280156112755781602001602082028038833980820191505090505b5090506060826040519080825280602002602001820160405280156112a95781602001602082028038833980820191505090505b50905060008090505b8381101561144957600785602001518154811015156112cd57fe5b9060005260206000209060040201600201818154811015156112eb57fe5b9060005260206000200160009054906101000a900473ffffffffffffffffffffffffffffffffffffffff16838281518110151561132457fe5b9060200190602002019073ffffffffffffffffffffffffffffffffffffffff16908173ffffffffffffffffffffffffffffffffffffffff16815250506007856020015181548110151561137357fe5b906000526020600020906004020160030160006007876020015181548110151561139957fe5b9060005260206000209060040201600201838154811015156113b757fe5b9060005260206000200160009054906101000a900473ffffffffffffffffffffffffffffffffffffffff1673ffffffffffffffffffffffffffffffffffffffff1673ffffffffffffffffffffffffffffffffffffffff16815260200190815260200160002060020154828281518110151561142e57fe5b906020019060200201818152505080806001019150506112b2565b50818195509550505050505b915091565b60065481565b60008060009054906101000a900473ffffffffffffffffffffffffffffffffffffffff1673ffffffffffffffffffffffffffffffffffffffff163373ffffffffffffffffffffffffffffffffffffffff161415156114bd57600080fd5b600073ffffffffffffffffffffffffffffffffffffffff16600260008473ffffffffffffffffffffffffffffffffffffffff1673ffffffffffffffffffffffffffffffffffffffff16815260200190815260200160002060009054906101000a900473ffffffffffffffffffffffffffffffffffffffff1673ffffffffffffffffffffffffffffffffffffffff161415151561155857600080fd5b6000600260008473ffffffffffffffffffffffffffffffffffffffff1673ffffffffffffffffffffffffffffffffffffffff16815260200190815260200160002060006101000a81548173ffffffffffffffffffffffffffffffffffffffff021916908373ffffffffffffffffffffffffffffffffffffffff160217905550600260008373ffffffffffffffffffffffffffffffffffffffff1673ffffffffffffffffffffffffffffffffffffffff16815260200190815260200160002060006101000a81549073ffffffffffffffffffffffffffffffffffffffff021916905560008090505b6001805490508110156117b6578273ffffffffffffffffffffffffffffffffffffffff1660018281548110151561167257fe5b9060005260206000200160009054906101000a900473ffffffffffffffffffffffffffffffffffffffff1673ffffffffffffffffffffffffffffffffffffffff1614156117a9576001808080549050038154811015156116ce57fe5b9060005260206000200160009054906101000a900473ffffffffffffffffffffffffffffffffffffffff1660018281548110151561170857fe5b9060005260206000200160006101000a81548173ffffffffffffffffffffffffffffffffffffffff021916908373ffffffffffffffffffffffffffffffffffffffff16021790555060018080805490500381548110151561176557fe5b9060005260206000200160006101000a81549073ffffffffffffffffffffffffffffffffffffffff021916905560018054809190600190036117a79190613fa7565b505b808060010191505061163f565b5060019050919050565b60008073ffffffffffffffffffffffffffffffffffffffff16600260003373ffffffffffffffffffffffffffffffffffffffff1673ffffffffffffffffffffffffffffffffffffffff16815260200190815260200160002060009054906101000a900473ffffffffffffffffffffffffffffffffffffffff1673ffffffffffffffffffffffffffffffffffffffff161415151561185c57600080fd5b8160058190555060019050919050565b606060018054806020026020016040519081016040528092919081815260200182805480156118f057602002820191906000526020600020905b8160009054906101000a900473ffffffffffffffffffffffffffffffffffffffff1673ffffffffffffffffffffffffffffffffffffffff16815260200190600101908083116118a6575b5050505050905090565b60008060009054906101000a900473ffffffffffffffffffffffffffffffffffffffff1673ffffffffffffffffffffffffffffffffffffffff163373ffffffffffffffffffffffffffffffffffffffff1614151561195757600080fd5b6000809054906101000a900473ffffffffffffffffffffffffffffffffffffffff1673ffffffffffffffffffffffffffffffffffffffff16ff5b600061199b613f77565b600860008573ffffffffffffffffffffffffffffffffffffffff1673ffffffffffffffffffffffffffffffffffffffff1681526020019081526020016000206040805190810160405290816000820160009054906101000a900473ffffffffffffffffffffffffffffffffffffffff1673ffffffffffffffffffffffffffffffffffffffff1673ffffffffffffffffffffffffffffffffffffffff16815260200160018201548152505090508373ffffffffffffffffffffffffffffffffffffffff16816000015173ffffffffffffffffffffffffffffffffffffffff161415611bc05760008090505b60078260200151815481101515611a9857fe5b906000526020600020906004020160020180549050811015611bbe578373ffffffffffffffffffffffffffffffffffffffff1660078360200151815481101515611ade57fe5b906000526020600020906004020160020182815481101515611afc57fe5b9060005260206000200160009054906101000a900473ffffffffffffffffffffffffffffffffffffffff1673ffffffffffffffffffffffffffffffffffffffff161415611bb15760078260200151815481101515611b5657fe5b906000526020600020906004020160030160008573ffffffffffffffffffffffffffffffffffffffff1673ffffffffffffffffffffffffffffffffffffffff1681526020019081526020016000206002015492505050611bc6565b8080600101915050611a85565b505b60009150505b92915050565b611bd68282612ddd565b611bde612465565b5050565b60008073ffffffffffffffffffffffffffffffffffffffff16600260003373ffffffffffffffffffffffffffffffffffffffff1673ffffffffffffffffffffffffffffffffffffffff16815260200190815260200160002060009054906101000a900473ffffffffffffffffffffffffffffffffffffffff1673ffffffffffffffffffffffffffffffffffffffff1614151515611c7e57600080fd5b670de0b6b3a764000082111515611c9457600080fd5b8160068190555060019050919050565b6000611cae613f77565b600860003373ffffffffffffffffffffffffffffffffffffffff1673ffffffffffffffffffffffffffffffffffffffff1681526020019081526020016000206040805190810160405290816000820160009054906101000a900473ffffffffffffffffffffffffffffffffffffffff1673ffffffffffffffffffffffffffffffffffffffff1673ffffffffffffffffffffffffffffffffffffffff16815260200160018201548152505090503373ffffffffffffffffffffffffffffffffffffffff16816000015173ffffffffffffffffffffffffffffffffffffffff16141515611d9857600080fd5b60008160200151905060008090505b600782815481101515611db657fe5b906000526020600020906004020160020180549050811015612230578473ffffffffffffffffffffffffffffffffffffffff16600783815481101515611df857fe5b906000526020600020906004020160020182815481101515611e1657fe5b9060005260206000200160009054906101000a900473ffffffffffffffffffffffffffffffffffffffff1673ffffffffffffffffffffffffffffffffffffffff16141561222357611fbd600783815481101515611e6f57fe5b90600052602060002090600402016003016000600785815481101515611e9157fe5b906000526020600020906004020160020184815481101515611eaf57fe5b9060005260206000200160009054906101000a900473ffffffffffffffffffffffffffffffffffffffff1673ffffffffffffffffffffffffffffffffffffffff1673ffffffffffffffffffffffffffffffffffffffff1681526020019081526020016000206002015460096000600786815481101515611f2b57fe5b906000526020600020906004020160020185815481101515611f4957fe5b9060005260206000200160009054906101000a900473ffffffffffffffffffffffffffffffffffffffff1673ffffffffffffffffffffffffffffffffffffffff1673ffffffffffffffffffffffffffffffffffffffff16815260200190815260200160002054613b2690919063ffffffff16565b60096000600785815481101515611fd057fe5b906000526020600020906004020160020184815481101515611fee57fe5b9060005260206000200160009054906101000a900473ffffffffffffffffffffffffffffffffffffffff1673ffffffffffffffffffffffffffffffffffffffff1673ffffffffffffffffffffffffffffffffffffffff1681526020019081526020016000208190555061214160078381548110151561206957fe5b9060005260206000209060040201600301600060078581548110151561208b57fe5b9060005260206000209060040201600201848154811015156120a957fe5b9060005260206000200160009054906101000a900473ffffffffffffffffffffffffffffffffffffffff1673ffffffffffffffffffffffffffffffffffffffff1673ffffffffffffffffffffffffffffffffffffffff1681526020019081526020016000206002015460078481548110151561212157fe5b906000526020600020906004020160010154613b2690919063ffffffff16565b60078381548110151561215057fe5b906000526020600020906004020160010181905550600060078381548110151561217657fe5b9060005260206000209060040201600301600060078581548110151561219857fe5b9060005260206000209060040201600201848154811015156121b657fe5b9060005260206000200160009054906101000a900473ffffffffffffffffffffffffffffffffffffffff1673ffffffffffffffffffffffffffffffffffffffff1673ffffffffffffffffffffffffffffffffffffffff168152602001908152602001600020600201819055505b8080600101915050611da7565b505050919050565b60008060009054906101000a900473ffffffffffffffffffffffffffffffffffffffff1673ffffffffffffffffffffffffffffffffffffffff163373ffffffffffffffffffffffffffffffffffffffff1614151561229557600080fd5b600073ffffffffffffffffffffffffffffffffffffffff16600260008473ffffffffffffffffffffffffffffffffffffffff1673ffffffffffffffffffffffffffffffffffffffff16815260200190815260200160002060009054906101000a900473ffffffffffffffffffffffffffffffffffffffff1673ffffffffffffffffffffffffffffffffffffffff1614151561232f57600080fd5b81600260008473ffffffffffffffffffffffffffffffffffffffff1673ffffffffffffffffffffffffffffffffffffffff16815260200190815260200160002060006101000a81548173ffffffffffffffffffffffffffffffffffffffff021916908373ffffffffffffffffffffffffffffffffffffffff16021790555060018290806001815401808255809150509060018203906000526020600020016000909192909190916101000a81548173ffffffffffffffffffffffffffffffffffffffff021916908373ffffffffffffffffffffffffffffffffffffffff1602179055505060019050919050565b6000600960008373ffffffffffffffffffffffffffffffffffffffff1673ffffffffffffffffffffffffffffffffffffffff168152602001908152602001600020549050919050565b6000600190505b60078054905081101561258857600060078281548110151561248a57fe5b906000526020600020906004020160010154111561256c576007818154811015156124b157fe5b9060005260206000209060040201600101546007828154811015156124d257fe5b906000526020600020906004020160000160009054906101000a900473ffffffffffffffffffffffffffffffffffffffff1673ffffffffffffffffffffffffffffffffffffffff1631101561256b5761256a60078281548110151561253357fe5b906000526020600020906004020160000160009054906101000a900473ffffffffffffffffffffffffffffffffffffffff16613b3f565b5b5b6005545a101561257b57612588565b808060010191505061246c565b50565b60008060009054906101000a900473ffffffffffffffffffffffffffffffffffffffff16905090565b6000809054906101000a900473ffffffffffffffffffffffffffffffffffffffff1681565b6125e233613b3f565b565b6000600460009054906101000a900473ffffffffffffffffffffffffffffffffffffffff16905090565b606080600080905060008090505b60078054905081101561266857600060078281548110151561263a57fe5b906000526020600020906004020160010154111561265b5781806001019250505b808060010191505061261c565b5060608160405190808252806020026020018201604052801561269a5781602001602082028038833980820191505090505b5090506060826040519080825280602002602001820160405280156126ce5781602001602082028038833980820191505090505b509050600080905060008090505b6007805490508110156127f05760006007828154811015156126fa57fe5b90600052602060002090600402016001015411156127e35760078181548110151561272157fe5b906000526020600020906004020160000160009054906101000a900473ffffffffffffffffffffffffffffffffffffffff16848381518110151561276157fe5b9060200190602002019073ffffffffffffffffffffffffffffffffffffffff16908173ffffffffffffffffffffffffffffffffffffffff16815250506007818154811015156127ac57fe5b90600052602060002090600402016001015483838151811015156127cc57fe5b906020019060200201818152505081806001019250505b80806001019150506126dc565b50828295509550505050509091565b60026020528060005260406000206000915054906101000a900473ffffffffffffffffffffffffffffffffffffffff1681565b8051825114151561284257600080fd5b60008090505b825181101561289657612889838281518110151561286257fe5b90602001906020020151838381518110151561287a57fe5b90602001906020020151612ddd565b8080600101915050612848565b5061289f612465565b5050565b60608060606007805490506040519080825280602002602001820160405280156128dc5781602001602082028038833980820191505090505b50905060606007805490506040519080825280602002602001820160405280156129155781602001602082028038833980820191505090505b509050600080905060008090505b600780549050811015612ab757600060078281548110151561294157fe5b906000526020600020906004020160030160008973ffffffffffffffffffffffffffffffffffffffff1673ffffffffffffffffffffffffffffffffffffffff168152602001908152602001600020600201541115612aaa576007818154811015156129a857fe5b906000526020600020906004020160000160009054906101000a900473ffffffffffffffffffffffffffffffffffffffff1684838151811015156129e857fe5b9060200190602002019073ffffffffffffffffffffffffffffffffffffffff16908173ffffffffffffffffffffffffffffffffffffffff1681525050600781815481101515612a3357fe5b906000526020600020906004020160030160008873ffffffffffffffffffffffffffffffffffffffff1673ffffffffffffffffffffffffffffffffffffffff168152602001908152602001600020600201548383815181101515612a9357fe5b906020019060200201818152505081806001019250505b8080600101915050612923565b50606081604051908082528060200260200182016040528015612ae95781602001602082028038833980820191505090505b509050606082604051908082528060200260200182016040528015612b1d5781602001602082028038833980820191505090505b50905060008090505b83811015612bd1578581815181101515612b3c57fe5b906020019060200201518382815181101515612b5457fe5b9060200190602002019073ffffffffffffffffffffffffffffffffffffffff16908173ffffffffffffffffffffffffffffffffffffffff16815250508481815181101515612b9e57fe5b906020019060200201518282815181101515612bb657fe5b90602001906020020181815250508080600101915050612b26565b508181965096505050505050915091565b60008060009054906101000a900473ffffffffffffffffffffffffffffffffffffffff1673ffffffffffffffffffffffffffffffffffffffff163373ffffffffffffffffffffffffffffffffffffffff16141515612c3f57600080fd5b816000806101000a81548173ffffffffffffffffffffffffffffffffffffffff021916908373ffffffffffffffffffffffffffffffffffffffff160217905550612c8882612238565b50612cb36000809054906101000a900473ffffffffffffffffffffffffffffffffffffffff16611460565b5060019050919050565b600073ffffffffffffffffffffffffffffffffffffffff16600260003373ffffffffffffffffffffffffffffffffffffffff1673ffffffffffffffffffffffffffffffffffffffff16815260200190815260200160002060009054906101000a900473ffffffffffffffffffffffffffffffffffffffff1673ffffffffffffffffffffffffffffffffffffffff1614151515612d5857600080fd5b80600360006101000a81548173ffffffffffffffffffffffffffffffffffffffff021916908373ffffffffffffffffffffffffffffffffffffffff16021790555080600460006101000a81548173ffffffffffffffffffffffffffffffffffffffff021916908373ffffffffffffffffffffffffffffffffffffffff16021790555050565b6006548110151515612e57576040517f08c379a000000000000000000000000000000000000000000000000000000000815260040180806020018281038252600b8152602001807f6e756d20746f6f206c6f7700000000000000000000000000000000000000000081525060200191505060405180910390fd5b600360009054906101000a900473ffffffffffffffffffffffffffffffffffffffff1673ffffffffffffffffffffffffffffffffffffffff1663228101b6836040518263ffffffff167c0100000000000000000000000000000000000000000000000000000000028152600401808273ffffffffffffffffffffffffffffffffffffffff1673ffffffffffffffffffffffffffffffffffffffff16815260200191505060206040518083038186803b158015612f1257600080fd5b505afa158015612f26573d6000803e3d6000fd5b505050506040513d6020811015612f3c57600080fd5b81019080805190602001909291905050501515612fc1576040517f08c379a000000000000000000000000000000000000000000000000000000000815260040180806020018281038252600b8152602001807f756e6c6f636b206e6f646500000000000000000000000000000000000000000081525060200191505060405180910390fd5b600073ffffffffffffffffffffffffffffffffffffffff16600860003373ffffffffffffffffffffffffffffffffffffffff1673ffffffffffffffffffffffffffffffffffffffff16815260200190815260200160002060000160009054906101000a900473ffffffffffffffffffffffffffffffffffffffff1673ffffffffffffffffffffffffffffffffffffffff1614156133ba5733600860003373ffffffffffffffffffffffffffffffffffffffff1673ffffffffffffffffffffffffffffffffffffffff16815260200190815260200160002060000160006101000a81548173ffffffffffffffffffffffffffffffffffffffff021916908373ffffffffffffffffffffffffffffffffffffffff160217905550600780549050600860003373ffffffffffffffffffffffffffffffffffffffff1673ffffffffffffffffffffffffffffffffffffffff1681526020019081526020016000206001018190555061312d613fd3565b61313561400b565b33826000019073ffffffffffffffffffffffffffffffffffffffff16908173ffffffffffffffffffffffffffffffffffffffff16815250508282602001818152505060008160200181815250508281604001818152505083816000019073ffffffffffffffffffffffffffffffffffffffff16908173ffffffffffffffffffffffffffffffffffffffff16815250506007829080600181540180825580915050906001820390600052602060002090600402016000909192909190915060008201518160000160006101000a81548173ffffffffffffffffffffffffffffffffffffffff021916908373ffffffffffffffffffffffffffffffffffffffff16021790555060208201518160010155604082015181600201908051906020019061325f929190614043565b50505050600760016007805490500381548110151561327a57fe5b90600052602060002090600402016002018490806001815401808255809150509060018203906000526020600020016000909192909190916101000a81548173ffffffffffffffffffffffffffffffffffffffff021916908373ffffffffffffffffffffffffffffffffffffffff1602179055505080600760016007805490500381548110151561330757fe5b906000526020600020906004020160030160008673ffffffffffffffffffffffffffffffffffffffff1673ffffffffffffffffffffffffffffffffffffffff16815260200190815260200160002060008201518160000160006101000a81548173ffffffffffffffffffffffffffffffffffffffff021916908373ffffffffffffffffffffffffffffffffffffffff1602179055506020820151816001015560408201518160020155905050505061399c565b61342f6007600860003373ffffffffffffffffffffffffffffffffffffffff1673ffffffffffffffffffffffffffffffffffffffff1681526020019081526020016000206001015481548110151561340e57fe5b90600052602060002090600402016001015482613f5b90919063ffffffff16565b6007600860003373ffffffffffffffffffffffffffffffffffffffff1673ffffffffffffffffffffffffffffffffffffffff1681526020019081526020016000206001015481548110151561348057fe5b906000526020600020906004020160010181905550600073ffffffffffffffffffffffffffffffffffffffff166007600860003373ffffffffffffffffffffffffffffffffffffffff1673ffffffffffffffffffffffffffffffffffffffff168152602001908152602001600020600101548154811015156134fe57fe5b906000526020600020906004020160030160008473ffffffffffffffffffffffffffffffffffffffff1673ffffffffffffffffffffffffffffffffffffffff16815260200190815260200160002060000160009054906101000a900473ffffffffffffffffffffffffffffffffffffffff1673ffffffffffffffffffffffffffffffffffffffff161415613840576007600860003373ffffffffffffffffffffffffffffffffffffffff1673ffffffffffffffffffffffffffffffffffffffff168152602001908152602001600020600101548154811015156135dd57fe5b9060005260206000209060040201600201805490506007600860003373ffffffffffffffffffffffffffffffffffffffff1673ffffffffffffffffffffffffffffffffffffffff1681526020019081526020016000206001015481548110151561364357fe5b906000526020600020906004020160030160008473ffffffffffffffffffffffffffffffffffffffff1673ffffffffffffffffffffffffffffffffffffffff16815260200190815260200160002060010181905550816007600860003373ffffffffffffffffffffffffffffffffffffffff1673ffffffffffffffffffffffffffffffffffffffff168152602001908152602001600020600101548154811015156136ea57fe5b906000526020600020906004020160030160008473ffffffffffffffffffffffffffffffffffffffff1673ffffffffffffffffffffffffffffffffffffffff16815260200190815260200160002060000160006101000a81548173ffffffffffffffffffffffffffffffffffffffff021916908373ffffffffffffffffffffffffffffffffffffffff1602179055506007600860003373ffffffffffffffffffffffffffffffffffffffff1673ffffffffffffffffffffffffffffffffffffffff168152602001908152602001600020600101548154811015156137ca57fe5b90600052602060002090600402016002018290806001815401808255809150509060018203906000526020600020016000909192909190916101000a81548173ffffffffffffffffffffffffffffffffffffffff021916908373ffffffffffffffffffffffffffffffffffffffff160217905550505b6138f56007600860003373ffffffffffffffffffffffffffffffffffffffff1673ffffffffffffffffffffffffffffffffffffffff1681526020019081526020016000206001015481548110151561389457fe5b906000526020600020906004020160030160008473ffffffffffffffffffffffffffffffffffffffff1673ffffffffffffffffffffffffffffffffffffffff1681526020019081526020016000206002015482613f5b90919063ffffffff16565b6007600860003373ffffffffffffffffffffffffffffffffffffffff1673ffffffffffffffffffffffffffffffffffffffff1681526020019081526020016000206001015481548110151561394657fe5b906000526020600020906004020160030160008473ffffffffffffffffffffffffffffffffffffffff1673ffffffffffffffffffffffffffffffffffffffff168152602001908152602001600020600201819055505b6139ee600960008473ffffffffffffffffffffffffffffffffffffffff1673ffffffffffffffffffffffffffffffffffffffff1681526020019081526020016000205482613f5b90919063ffffffff16565b600960008473ffffffffffffffffffffffffffffffffffffffff1673ffffffffffffffffffffffffffffffffffffffff168152602001908152602001600020819055506007600860003373ffffffffffffffffffffffffffffffffffffffff1673ffffffffffffffffffffffffffffffffffffffff16815260200190815260200160002060010154815481101515613a8257fe5b9060005260206000209060040201600101543373ffffffffffffffffffffffffffffffffffffffff163110151515613b22576040517f08c379a000000000000000000000000000000000000000000000000000000000815260040180806020018281038252600f8152602001807f62616c616e636520746f6f206c6f77000000000000000000000000000000000081525060200191505060405180910390fd5b5050565b6000828211151515613b3457fe5b818303905092915050565b613b47613f77565b600860008373ffffffffffffffffffffffffffffffffffffffff1673ffffffffffffffffffffffffffffffffffffffff1681526020019081526020016000206040805190810160405290816000820160009054906101000a900473ffffffffffffffffffffffffffffffffffffffff1673ffffffffffffffffffffffffffffffffffffffff1673ffffffffffffffffffffffffffffffffffffffff16815260200160018201548152505090508173ffffffffffffffffffffffffffffffffffffffff16816000015173ffffffffffffffffffffffffffffffffffffffff16141515613c3157600080fd5b60008160200151905060008090505b600782815481101515613c4f57fe5b906000526020600020906004020160020180549050811015613f2f57613dcb600783815481101515613c7d57fe5b90600052602060002090600402016003016000600785815481101515613c9f57fe5b906000526020600020906004020160020184815481101515613cbd57fe5b9060005260206000200160009054906101000a900473ffffffffffffffffffffffffffffffffffffffff1673ffffffffffffffffffffffffffffffffffffffff1673ffffffffffffffffffffffffffffffffffffffff1681526020019081526020016000206002015460096000600786815481101515613d3957fe5b906000526020600020906004020160020185815481101515613d5757fe5b9060005260206000200160009054906101000a900473ffffffffffffffffffffffffffffffffffffffff1673ffffffffffffffffffffffffffffffffffffffff1673ffffffffffffffffffffffffffffffffffffffff16815260200190815260200160002054613b2690919063ffffffff16565b60096000600785815481101515613dde57fe5b906000526020600020906004020160020184815481101515613dfc57fe5b9060005260206000200160009054906101000a900473ffffffffffffffffffffffffffffffffffffffff1673ffffffffffffffffffffffffffffffffffffffff1673ffffffffffffffffffffffffffffffffffffffff168152602001908152602001600020819055506000600783815481101515613e7657fe5b90600052602060002090600402016003016000600785815481101515613e9857fe5b906000526020600020906004020160020184815481101515613eb657fe5b9060005260206000200160009054906101000a900473ffffffffffffffffffffffffffffffffffffffff1673ffffffffffffffffffffffffffffffffffffffff1673ffffffffffffffffffffffffffffffffffffffff168152602001908152602001600020600201819055508080600101915050613c40565b506000600782815481101515613f4157fe5b906000526020600020906004020160010181905550505050565b60008183019050828110151515613f6e57fe5b80905092915050565b6040805190810160405280600073ffffffffffffffffffffffffffffffffffffffff168152602001600081525090565b815481835581811115613fce57818360005260206000209182019101613fcd91906140cd565b5b505050565b606060405190810160405280600073ffffffffffffffffffffffffffffffffffffffff16815260200160008152602001606081525090565b606060405190810160405280600073ffffffffffffffffffffffffffffffffffffffff16815260200160008152602001600081525090565b8280548282559060005260206000209081019282156140bc579160200282015b828111156140bb5782518260006101000a81548173ffffffffffffffffffffffffffffffffffffffff021916908373ffffffffffffffffffffffffffffffffffffffff16021790555091602001919060010190614063565b5b5090506140c991906140f2565b5090565b6140ef91905b808211156140eb5760008160009055506001016140d3565b5090565b90565b61413291905b8082111561412e57600081816101000a81549073ffffffffffffffffffffffffffffffffffffffff0219169055506001016140f8565b5090565b9056fea165627a7a723058205a719a7595b312d59ddcf8b0eb5115f3dd91922a4c9cf2fe55ed38d9fc2e09090029",
  "linkReferences": {},
  "deployedLinkReferences": {}
}