{
  "_format": "hh-sol-artifact-1",
  "contractName": "Proxy",
  "sourceName": "contracts/Proxy.sol",
  "abi": [
    {
      "constant": true,
      "inputs": [],
      "name": "fetchAllVoteResult",
      "outputs": [
        {
          "name": "",
          "type": "address[]"
        },
        {
          "name": "",
          "type": "uint256[]"
        }
      ],
      "payable": false,
      "stateMutability": "view",
      "type": "function"
    },
    {
      "constant": false,
      "inputs": [
        {
          "name": "addr",
          "type": "address"
        }
      ],
      "name": "deleteAdmin",
      "outputs": [
        {
          "name": "",
          "type": "bool"
        }
      ],
      "payable": false,
      "stateMutability": "nonpayable",
      "type": "function"
    },
    {
      "constant": true,
      "inputs": [],
      "name": "getAdmins",
      "outputs": [
        {
          "name": "",
          "type": "address[]"
        }
      ],
      "payable": false,
      "stateMutability": "view",
      "type": "function"
    },
    {
      "constant": false,
      "inputs": [
        {
          "name": "addr",
          "type": "address"
        }
      ],
      "name": "addAdmin",
      "outputs": [
        {
          "name": "",
          "type": "bool"
        }
      ],
      "payable": false,
      "stateMutability": "nonpayable",
      "type": "function"
    },
    {
      "constant": false,
      "inputs": [
        {
          "name": "lockaddr",
          "type": "address"
        }
      ],
      "name": "setlockcontract",
      "outputs": [],
      "payable": false,
      "stateMutability": "nonpayable",
      "type": "function"
    },
    {
      "constant": true,
      "inputs": [],
      "name": "getOwner",
      "outputs": [
        {
          "name": "",
          "type": "address"
        }
      ],
      "payable": false,
      "stateMutability": "view",
      "type": "function"
    },
    {
      "constant": true,
      "inputs": [],
      "name": "owner",
      "outputs": [
        {
          "name": "",
          "type": "address"
        }
      ],
      "payable": false,
      "stateMutability": "view",
      "type": "function"
    },
    {
      "constant": false,
      "inputs": [
        {
          "name": "voteaddr",
          "type": "address"
        }
      ],
      "name": "setvotecontract",
      "outputs": [],
      "payable": false,
      "stateMutability": "nonpayable",
      "type": "function"
    },
    {
      "constant": true,
      "inputs": [],
      "name": "fetchAllHolderAddrs",
      "outputs": [
        {
          "name": "",
          "type": "address[]"
        },
        {
          "name": "",
          "type": "address[]"
        }
      ],
      "payable": false,
      "stateMutability": "view",
      "type": "function"
    },
    {
      "constant": false,
      "inputs": [
        {
          "name": "nodeaddr",
          "type": "address"
        }
      ],
      "name": "setnodecontract",
      "outputs": [],
      "payable": false,
      "stateMutability": "nonpayable",
      "type": "function"
    },
    {
      "constant": true,
      "inputs": [
        {
          "name": "",
          "type": "address"
        }
      ],
      "name": "adminMap",
      "outputs": [
        {
          "name": "",
          "type": "address"
        }
      ],
      "payable": false,
      "stateMutability": "view",
      "type": "function"
    },
    {
      "constant": true,
      "inputs": [],
      "name": "getAllHpbNodes",
      "outputs": [
        {
          "name": "",
          "type": "address[]"
        },
        {
          "name": "",
          "type": "bytes32[]"
        },
        {
          "name": "",
          "type": "bytes32[]"
        },
        {
          "name": "",
          "type": "bytes32[]"
        }
      ],
      "payable": false,
      "stateMutability": "view",
      "type": "function"
    },
    {
      "constant": true,
      "inputs": [],
      "name": "getcontract",
      "outputs": [
        {
          "name": "",
          "type": "address"
        },
        {
          "name": "",
          "type": "address"
        },
        {
          "name": "",
          "type": "address"
        }
      ],
      "payable": false,
      "stateMutability": "view",
      "type": "function"
    },
    {
      "constant": false,
      "inputs": [
        {
          "name": "newOwner",
          "type": "address"
        }
      ],
      "name": "transferOwnership",
      "outputs": [
        {
          "name": "",
          "type": "bool"
        }
      ],
      "payable": false,
      "stateMutability": "nonpayable",
      "type": "function"
    },
    {
      "inputs": [],
      "payable": true,
      "stateMutability": "payable",
      "type": "constructor"
    }
  ],
  "bytecode": "0x6080604052336000806101000a81548173ffffffffffffffffffffffffffffffffffffffff021916908373ffffffffffffffffffffffffffffffffffffffff16021790555061007d6000809054906101000a900473ffffffffffffffffffffffffffffffffffffffff16610083640100000000026401000000009004565b50610267565b60008060009054906101000a900473ffffffffffffffffffffffffffffffffffffffff1673ffffffffffffffffffffffffffffffffffffffff163373ffffffffffffffffffffffffffffffffffffffff161415156100e057600080fd5b600073ffffffffffffffffffffffffffffffffffffffff16600260008473ffffffffffffffffffffffffffffffffffffffff1673ffffffffffffffffffffffffffffffffffffffff16815260200190815260200160002060009054906101000a900473ffffffffffffffffffffffffffffffffffffffff1673ffffffffffffffffffffffffffffffffffffffff1614151561017a57600080fd5b81600260008473ffffffffffffffffffffffffffffffffffffffff1673ffffffffffffffffffffffffffffffffffffffff16815260200190815260200160002060006101000a81548173ffffffffffffffffffffffffffffffffffffffff021916908373ffffffffffffffffffffffffffffffffffffffff16021790555060018290806001815401808255809150509060018203906000526020600020016000909192909190916101000a81548173ffffffffffffffffffffffffffffffffffffffff021916908373ffffffffffffffffffffffffffffffffffffffff1602179055505060019050919050565b611889806102766000396000f3fe6080604052600436106100ca576000357c0100000000000000000000000000000000000000000000000000000000900480630304363a146100cf57806327e1f7df1461018357806331ae450b146101ec5780637048027514610258578063758e8a7d146102c1578063893d20e8146103125780638da5cb5b1461036957806399b8a92f146103c0578063ab2d2c0b14610411578063bad6e0af146104c5578063dbbc830b14610516578063dbe01790146105a7578063e8940888146106eb578063f2fde38b146107a8575b600080fd5b3480156100db57600080fd5b506100e4610811565b604051808060200180602001838103835285818151815260200191508051906020019060200280838360005b8381101561012b578082015181840152602081019050610110565b50505050905001838103825284818151815260200191508051906020019060200280838360005b8381101561016d578082015181840152602081019050610152565b5050505090500194505050505060405180910390f35b34801561018f57600080fd5b506101d2600480360360208110156101a657600080fd5b81019080803573ffffffffffffffffffffffffffffffffffffffff169060200190929190505050610980565b604051808215151515815260200191505060405180910390f35b3480156101f857600080fd5b50610201610ce0565b6040518080602001828103825283818151815260200191508051906020019060200280838360005b83811015610244578082015181840152602081019050610229565b505050509050019250505060405180910390f35b34801561026457600080fd5b506102a76004803603602081101561027b57600080fd5b81019080803573ffffffffffffffffffffffffffffffffffffffff169060200190929190505050610d6e565b604051808215151515815260200191505060405180910390f35b3480156102cd57600080fd5b50610310600480360360208110156102e457600080fd5b81019080803573ffffffffffffffffffffffffffffffffffffffff169060200190929190505050610f52565b005b34801561031e57600080fd5b50610327611072565b604051808273ffffffffffffffffffffffffffffffffffffffff1673ffffffffffffffffffffffffffffffffffffffff16815260200191505060405180910390f35b34801561037557600080fd5b5061037e61109b565b604051808273ffffffffffffffffffffffffffffffffffffffff1673ffffffffffffffffffffffffffffffffffffffff16815260200191505060405180910390f35b3480156103cc57600080fd5b5061040f600480360360208110156103e357600080fd5b81019080803573ffffffffffffffffffffffffffffffffffffffff1690602001909291905050506110c0565b005b34801561041d57600080fd5b506104266111e0565b604051808060200180602001838103835285818151815260200191508051906020019060200280838360005b8381101561046d578082015181840152602081019050610452565b50505050905001838103825284818151815260200191508051906020019060200280838360005b838110156104af578082015181840152602081019050610494565b5050505090500194505050505060405180910390f35b3480156104d157600080fd5b50610514600480360360208110156104e857600080fd5b81019080803573ffffffffffffffffffffffffffffffffffffffff16906020019092919050505061134f565b005b34801561052257600080fd5b506105656004803603602081101561053957600080fd5b81019080803573ffffffffffffffffffffffffffffffffffffffff16906020019092919050505061146f565b604051808273ffffffffffffffffffffffffffffffffffffffff1673ffffffffffffffffffffffffffffffffffffffff16815260200191505060405180910390f35b3480156105b357600080fd5b506105bc6114a2565b6040518080602001806020018060200180602001858103855289818151815260200191508051906020019060200280838360005b8381101561060b5780820151818401526020810190506105f0565b50505050905001858103845288818151815260200191508051906020019060200280838360005b8381101561064d578082015181840152602081019050610632565b50505050905001858103835287818151815260200191508051906020019060200280838360005b8381101561068f578082015181840152602081019050610674565b50505050905001858103825286818151815260200191508051906020019060200280838360005b838110156106d15780820151818401526020810190506106b6565b505050509050019850505050505050505060405180910390f35b3480156106f757600080fd5b506107006116b8565b604051808473ffffffffffffffffffffffffffffffffffffffff1673ffffffffffffffffffffffffffffffffffffffff1681526020018373ffffffffffffffffffffffffffffffffffffffff1673ffffffffffffffffffffffffffffffffffffffff1681526020018273ffffffffffffffffffffffffffffffffffffffff1673ffffffffffffffffffffffffffffffffffffffff168152602001935050505060405180910390f35b3480156107b457600080fd5b506107f7600480360360208110156107cb57600080fd5b81019080803573ffffffffffffffffffffffffffffffffffffffff169060200190929190505050611731565b604051808215151515815260200191505060405180910390f35b606080600860009054906101000a900473ffffffffffffffffffffffffffffffffffffffff1673ffffffffffffffffffffffffffffffffffffffff16630304363a6040518163ffffffff167c010000000000000000000000000000000000000000000000000000000002815260040160006040518083038186803b15801561089857600080fd5b505afa1580156108ac573d6000803e3d6000fd5b505050506040513d6000823e3d601f19601f8201168201806040525060408110156108d657600080fd5b8101908080516401000000008111156108ee57600080fd5b8281019050602081018481111561090457600080fd5b815185602082028301116401000000008211171561092157600080fd5b5050929190602001805164010000000081111561093d57600080fd5b8281019050602081018481111561095357600080fd5b815185602082028301116401000000008211171561097057600080fd5b5050929190505050915091509091565b60008060009054906101000a900473ffffffffffffffffffffffffffffffffffffffff1673ffffffffffffffffffffffffffffffffffffffff163373ffffffffffffffffffffffffffffffffffffffff161415156109dd57600080fd5b600073ffffffffffffffffffffffffffffffffffffffff16600260008473ffffffffffffffffffffffffffffffffffffffff1673ffffffffffffffffffffffffffffffffffffffff16815260200190815260200160002060009054906101000a900473ffffffffffffffffffffffffffffffffffffffff1673ffffffffffffffffffffffffffffffffffffffff1614151515610a7857600080fd5b6000600260008473ffffffffffffffffffffffffffffffffffffffff1673ffffffffffffffffffffffffffffffffffffffff16815260200190815260200160002060006101000a81548173ffffffffffffffffffffffffffffffffffffffff021916908373ffffffffffffffffffffffffffffffffffffffff160217905550600260008373ffffffffffffffffffffffffffffffffffffffff1673ffffffffffffffffffffffffffffffffffffffff16815260200190815260200160002060006101000a81549073ffffffffffffffffffffffffffffffffffffffff021916905560008090505b600180549050811015610cd6578273ffffffffffffffffffffffffffffffffffffffff16600182815481101515610b9257fe5b9060005260206000200160009054906101000a900473ffffffffffffffffffffffffffffffffffffffff1673ffffffffffffffffffffffffffffffffffffffff161415610cc957600180808054905003815481101515610bee57fe5b9060005260206000200160009054906101000a900473ffffffffffffffffffffffffffffffffffffffff16600182815481101515610c2857fe5b9060005260206000200160006101000a81548173ffffffffffffffffffffffffffffffffffffffff021916908373ffffffffffffffffffffffffffffffffffffffff160217905550600180808054905003815481101515610c8557fe5b9060005260206000200160006101000a81549073ffffffffffffffffffffffffffffffffffffffff02191690556001805480919060019003610cc7919061180c565b505b8080600101915050610b5f565b5060019050919050565b60606001805480602002602001604051908101604052809291908181526020018280548015610d6457602002820191906000526020600020905b8160009054906101000a900473ffffffffffffffffffffffffffffffffffffffff1673ffffffffffffffffffffffffffffffffffffffff1681526020019060010190808311610d1a575b5050505050905090565b60008060009054906101000a900473ffffffffffffffffffffffffffffffffffffffff1673ffffffffffffffffffffffffffffffffffffffff163373ffffffffffffffffffffffffffffffffffffffff16141515610dcb57600080fd5b600073ffffffffffffffffffffffffffffffffffffffff16600260008473ffffffffffffffffffffffffffffffffffffffff1673ffffffffffffffffffffffffffffffffffffffff16815260200190815260200160002060009054906101000a900473ffffffffffffffffffffffffffffffffffffffff1673ffffffffffffffffffffffffffffffffffffffff16141515610e6557600080fd5b81600260008473ffffffffffffffffffffffffffffffffffffffff1673ffffffffffffffffffffffffffffffffffffffff16815260200190815260200160002060006101000a81548173ffffffffffffffffffffffffffffffffffffffff021916908373ffffffffffffffffffffffffffffffffffffffff16021790555060018290806001815401808255809150509060018203906000526020600020016000909192909190916101000a81548173ffffffffffffffffffffffffffffffffffffffff021916908373ffffffffffffffffffffffffffffffffffffffff1602179055505060019050919050565b600073ffffffffffffffffffffffffffffffffffffffff16600260003373ffffffffffffffffffffffffffffffffffffffff1673ffffffffffffffffffffffffffffffffffffffff16815260200190815260200160002060009054906101000a900473ffffffffffffffffffffffffffffffffffffffff1673ffffffffffffffffffffffffffffffffffffffff1614151515610fed57600080fd5b80600460006101000a81548173ffffffffffffffffffffffffffffffffffffffff021916908373ffffffffffffffffffffffffffffffffffffffff16021790555080600760006101000a81548173ffffffffffffffffffffffffffffffffffffffff021916908373ffffffffffffffffffffffffffffffffffffffff16021790555050565b60008060009054906101000a900473ffffffffffffffffffffffffffffffffffffffff16905090565b6000809054906101000a900473ffffffffffffffffffffffffffffffffffffffff1681565b600073ffffffffffffffffffffffffffffffffffffffff16600260003373ffffffffffffffffffffffffffffffffffffffff1673ffffffffffffffffffffffffffffffffffffffff16815260200190815260200160002060009054906101000a900473ffffffffffffffffffffffffffffffffffffffff1673ffffffffffffffffffffffffffffffffffffffff161415151561115b57600080fd5b80600560006101000a81548173ffffffffffffffffffffffffffffffffffffffff021916908373ffffffffffffffffffffffffffffffffffffffff16021790555080600860006101000a81548173ffffffffffffffffffffffffffffffffffffffff021916908373ffffffffffffffffffffffffffffffffffffffff16021790555050565b606080600660009054906101000a900473ffffffffffffffffffffffffffffffffffffffff1673ffffffffffffffffffffffffffffffffffffffff1663ab2d2c0b6040518163ffffffff167c010000000000000000000000000000000000000000000000000000000002815260040160006040518083038186803b15801561126757600080fd5b505afa15801561127b573d6000803e3d6000fd5b505050506040513d6000823e3d601f19601f8201168201806040525060408110156112a557600080fd5b8101908080516401000000008111156112bd57600080fd5b828101905060208101848111156112d357600080fd5b81518560208202830111640100000000821117156112f057600080fd5b5050929190602001805164010000000081111561130c57600080fd5b8281019050602081018481111561132257600080fd5b815185602082028301116401000000008211171561133f57600080fd5b5050929190505050915091509091565b600073ffffffffffffffffffffffffffffffffffffffff16600260003373ffffffffffffffffffffffffffffffffffffffff1673ffffffffffffffffffffffffffffffffffffffff16815260200190815260200160002060009054906101000a900473ffffffffffffffffffffffffffffffffffffffff1673ffffffffffffffffffffffffffffffffffffffff16141515156113ea57600080fd5b80600360006101000a81548173ffffffffffffffffffffffffffffffffffffffff021916908373ffffffffffffffffffffffffffffffffffffffff16021790555080600660006101000a81548173ffffffffffffffffffffffffffffffffffffffff021916908373ffffffffffffffffffffffffffffffffffffffff16021790555050565b60026020528060005260406000206000915054906101000a900473ffffffffffffffffffffffffffffffffffffffff1681565b606080606080600660009054906101000a900473ffffffffffffffffffffffffffffffffffffffff1673ffffffffffffffffffffffffffffffffffffffff1663dbe017906040518163ffffffff167c010000000000000000000000000000000000000000000000000000000002815260040160006040518083038186803b15801561152c57600080fd5b505afa158015611540573d6000803e3d6000fd5b505050506040513d6000823e3d601f19601f82011682018060405250608081101561156a57600080fd5b81019080805164010000000081111561158257600080fd5b8281019050602081018481111561159857600080fd5b81518560208202830111640100000000821117156115b557600080fd5b505092919060200180516401000000008111156115d157600080fd5b828101905060208101848111156115e757600080fd5b815185602082028301116401000000008211171561160457600080fd5b5050929190602001805164010000000081111561162057600080fd5b8281019050602081018481111561163657600080fd5b815185602082028301116401000000008211171561165357600080fd5b5050929190602001805164010000000081111561166f57600080fd5b8281019050602081018481111561168557600080fd5b81518560208202830111640100000000821117156116a257600080fd5b5050929190505050935093509350935090919293565b6000806000600360009054906101000a900473ffffffffffffffffffffffffffffffffffffffff16600460009054906101000a900473ffffffffffffffffffffffffffffffffffffffff16600560009054906101000a900473ffffffffffffffffffffffffffffffffffffffff16925092509250909192565b60008060009054906101000a900473ffffffffffffffffffffffffffffffffffffffff1673ffffffffffffffffffffffffffffffffffffffff163373ffffffffffffffffffffffffffffffffffffffff1614151561178e57600080fd5b816000806101000a81548173ffffffffffffffffffffffffffffffffffffffff021916908373ffffffffffffffffffffffffffffffffffffffff1602179055506117d782610d6e565b506118026000809054906101000a900473ffffffffffffffffffffffffffffffffffffffff16610980565b5060019050919050565b815481835581811115611833578183600052602060002091820191016118329190611838565b5b505050565b61185a91905b8082111561185657600081600090555060010161183e565b5090565b9056fea165627a7a7230582027eff9d7585ba90fc091e5a12fdc66351bbaa2fed4b4de39cc0da9fa29816a250029",
  "linkReferences": {},
  "deployedLinkReferences": {}
}